{
  "contractName": "KYC",
  "abi": [
    {
      "inputs": [],
      "payable": false,
      "stateMutability": "nonpayable",
      "type": "constructor"
    },
    {
      "constant": false,
      "inputs": [
        {
          "name": "name",
          "type": "string"
        },
        {
          "name": "uid",
          "type": "string"
        },
        {
          "name": "passcode",
          "type": "string"
        }
      ],
      "name": "registerNewBank",
      "outputs": [
        {
          "name": "",
          "type": "bool"
        }
      ],
      "payable": false,
      "stateMutability": "nonpayable",
      "type": "function"
    },
    {
      "constant": true,
      "inputs": [],
      "name": "getBankCount",
      "outputs": [
        {
          "name": "",
          "type": "uint256"
        }
      ],
      "payable": false,
      "stateMutability": "view",
      "type": "function"
    },
    {
      "constant": true,
      "inputs": [
        {
          "name": "uid",
          "type": "string"
        },
        {
          "name": "passcode",
          "type": "string"
        }
      ],
      "name": "getBankInfo",
      "outputs": [
        {
          "name": "",
          "type": "string"
        }
      ],
      "payable": false,
      "stateMutability": "view",
      "type": "function"
    },
    {
      "constant": false,
      "inputs": [
        {
          "name": "bankUid",
          "type": "string"
        },
        {
          "name": "bankPass",
          "type": "string"
        },
        {
          "name": "nid",
          "type": "string"
        },
        {
          "name": "name",
          "type": "string"
        }
      ],
      "name": "createAccount",
      "outputs": [
        {
          "name": "",
          "type": "bool"
        }
      ],
      "payable": false,
      "stateMutability": "nonpayable",
      "type": "function"
    },
    {
      "constant": false,
      "inputs": [
        {
          "name": "bankUid",
          "type": "string"
        },
        {
          "name": "bankPass",
          "type": "string"
        },
        {
          "name": "nid",
          "type": "string"
        },
        {
          "name": "dob",
          "type": "string"
        }
      ],
      "name": "setAccountDOB",
      "outputs": [],
      "payable": false,
      "stateMutability": "nonpayable",
      "type": "function"
    },
    {
      "constant": false,
      "inputs": [
        {
          "name": "bankUid",
          "type": "string"
        },
        {
          "name": "bankPass",
          "type": "string"
        },
        {
          "name": "nid",
          "type": "string"
        },
        {
          "name": "mobile",
          "type": "string"
        }
      ],
      "name": "setAccountMobileNumber",
      "outputs": [],
      "payable": false,
      "stateMutability": "nonpayable",
      "type": "function"
    },
    {
      "constant": false,
      "inputs": [
        {
          "name": "bankUid",
          "type": "string"
        },
        {
          "name": "bankPass",
          "type": "string"
        },
        {
          "name": "nid",
          "type": "string"
        },
        {
          "name": "caddress",
          "type": "string"
        }
      ],
      "name": "setAccountCurrentAddress",
      "outputs": [],
      "payable": false,
      "stateMutability": "nonpayable",
      "type": "function"
    },
    {
      "constant": false,
      "inputs": [
        {
          "name": "bankUid",
          "type": "string"
        },
        {
          "name": "bankPass",
          "type": "string"
        },
        {
          "name": "nid",
          "type": "string"
        },
        {
          "name": "fatherName",
          "type": "string"
        }
      ],
      "name": "setAccountFatherName",
      "outputs": [],
      "payable": false,
      "stateMutability": "nonpayable",
      "type": "function"
    },
    {
      "constant": false,
      "inputs": [
        {
          "name": "bankUid",
          "type": "string"
        },
        {
          "name": "bankPass",
          "type": "string"
        },
        {
          "name": "nid",
          "type": "string"
        },
        {
          "name": "gender",
          "type": "string"
        }
      ],
      "name": "setAccountGender",
      "outputs": [],
      "payable": false,
      "stateMutability": "nonpayable",
      "type": "function"
    },
    {
      "constant": true,
      "inputs": [
        {
          "name": "bankUid",
          "type": "string"
        },
        {
          "name": "bankPass",
          "type": "string"
        },
        {
          "name": "nid",
          "type": "string"
        }
      ],
      "name": "getAccountName",
      "outputs": [
        {
          "name": "",
          "type": "string"
        }
      ],
      "payable": false,
      "stateMutability": "view",
      "type": "function"
    },
    {
      "constant": true,
      "inputs": [
        {
          "name": "bankUid",
          "type": "string"
        },
        {
          "name": "bankPass",
          "type": "string"
        },
        {
          "name": "nid",
          "type": "string"
        }
      ],
      "name": "getAccountDOB",
      "outputs": [
        {
          "name": "",
          "type": "string"
        }
      ],
      "payable": false,
      "stateMutability": "view",
      "type": "function"
    },
    {
      "constant": true,
      "inputs": [
        {
          "name": "bankUid",
          "type": "string"
        },
        {
          "name": "bankPass",
          "type": "string"
        },
        {
          "name": "nid",
          "type": "string"
        }
      ],
      "name": "getAccountMobileNumber",
      "outputs": [
        {
          "name": "",
          "type": "string"
        }
      ],
      "payable": false,
      "stateMutability": "view",
      "type": "function"
    },
    {
      "constant": true,
      "inputs": [
        {
          "name": "bankUid",
          "type": "string"
        },
        {
          "name": "bankPass",
          "type": "string"
        },
        {
          "name": "nid",
          "type": "string"
        }
      ],
      "name": "getAccountCurrentAddress",
      "outputs": [
        {
          "name": "",
          "type": "string"
        }
      ],
      "payable": false,
      "stateMutability": "view",
      "type": "function"
    },
    {
      "constant": true,
      "inputs": [
        {
          "name": "bankUid",
          "type": "string"
        },
        {
          "name": "bankPass",
          "type": "string"
        },
        {
          "name": "nid",
          "type": "string"
        }
      ],
      "name": "getAccountFatherName",
      "outputs": [
        {
          "name": "",
          "type": "string"
        }
      ],
      "payable": false,
      "stateMutability": "view",
      "type": "function"
    },
    {
      "constant": true,
      "inputs": [
        {
          "name": "bankUid",
          "type": "string"
        },
        {
          "name": "bankPass",
          "type": "string"
        },
        {
          "name": "nid",
          "type": "string"
        }
      ],
      "name": "getAccountGender",
      "outputs": [
        {
          "name": "",
          "type": "string"
        }
      ],
      "payable": false,
      "stateMutability": "view",
      "type": "function"
    },
    {
      "constant": true,
      "inputs": [
        {
          "name": "bankUid",
          "type": "string"
        },
        {
          "name": "bankPass",
          "type": "string"
        },
        {
          "name": "nid",
          "type": "string"
        }
      ],
      "name": "getAccountSeederBank",
      "outputs": [
        {
          "name": "",
          "type": "string"
        }
      ],
      "payable": false,
      "stateMutability": "view",
      "type": "function"
    }
  ],
  "bytecode": "0x60806040523480156200001157600080fd5b50336000806101000a81548173ffffffffffffffffffffffffffffffffffffffff021916908373ffffffffffffffffffffffffffffffffffffffff1602179055506200005c620000c0565b604051809103906000f08015801562000079573d6000803e3d6000fd5b50600160006101000a81548173ffffffffffffffffffffffffffffffffffffffff021916908373ffffffffffffffffffffffffffffffffffffffff160217905550620000d1565b604051612467806200602983390190565b615f4880620000e16000396000f3006080604052600436106100e6576000357c0100000000000000000000000000000000000000000000000000000000900463ffffffff168063267911b4146100eb5780632b816bd7146102595780632e44715d146103c75780633bdc94aa146103f25780633e7298e11461056057806343f3e562146106ce5780634ae060981461079a57806359478dc3146108ed5780636f6ce0b114610a285780639125870c14610b63578063979ac48e14610cd1578063b76ccee414610e0c578063bf917cda14610e8f578063dc9e3cd514610fca578063f0dde08914611105578063fa77b5db14611273575b600080fd5b3480156100f757600080fd5b506101de600480360381019080803590602001908201803590602001908080601f0160208091040260200160405190810160405280939291908181526020018383808284378201915050505050509192919290803590602001908201803590602001908080601f0160208091040260200160405190810160405280939291908181526020018383808284378201915050505050509192919290803590602001908201803590602001908080601f01602080910402602001604051908101604052809392919081815260200183838082843782019150505050505091929192905050506113e1565b6040518080602001828103825283818151815260200191508051906020019080838360005b8381101561021e578082015181840152602081019050610203565b50505050905090810190601f16801561024b5780820380516001836020036101000a031916815260200191505b509250505060405180910390f35b34801561026557600080fd5b5061034c600480360381019080803590602001908201803590602001908080601f0160208091040260200160405190810160405280939291908181526020018383808284378201915050505050509192919290803590602001908201803590602001908080601f0160208091040260200160405190810160405280939291908181526020018383808284378201915050505050509192919290803590602001908201803590602001908080601f016020809104026020016040519081016040528093929190818152602001838380828437820191505050505050919291929050505061188d565b6040518080602001828103825283818151815260200191508051906020019080838360005b8381101561038c578082015181840152602081019050610371565b50505050905090810190601f1680156103b95780820380516001836020036101000a031916815260200191505b509250505060405180910390f35b3480156103d357600080fd5b506103dc611d39565b6040518082815260200191505060405180910390f35b3480156103fe57600080fd5b506104e5600480360381019080803590602001908201803590602001908080601f0160208091040260200160405190810160405280939291908181526020018383808284378201915050505050509192919290803590602001908201803590602001908080601f0160208091040260200160405190810160405280939291908181526020018383808284378201915050505050509192919290803590602001908201803590602001908080601f0160208091040260200160405190810160405280939291908181526020018383808284378201915050505050509192919290505050611e0a565b6040518080602001828103825283818151815260200191508051906020019080838360005b8381101561052557808201518184015260208101905061050a565b50505050905090810190601f1680156105525780820380516001836020036101000a031916815260200191505b509250505060405180910390f35b34801561056c57600080fd5b50610653600480360381019080803590602001908201803590602001908080601f0160208091040260200160405190810160405280939291908181526020018383808284378201915050505050509192919290803590602001908201803590602001908080601f0160208091040260200160405190810160405280939291908181526020018383808284378201915050505050509192919290803590602001908201803590602001908080601f01602080910402602001604051908101604052809392919081815260200183838082843782019150505050505091929192905050506122b6565b6040518080602001828103825283818151815260200191508051906020019080838360005b83811015610693578082015181840152602081019050610678565b50505050905090810190601f1680156106c05780820380516001836020036101000a031916815260200191505b509250505060405180910390f35b3480156106da57600080fd5b5061071f600480360381019080803590602001908201803590602001919091929391929390803590602001908201803590602001919091929391929390505050612762565b6040518080602001828103825283818151815260200191508051906020019080838360005b8381101561075f578082015181840152602081019050610744565b50505050905090810190601f16801561078c5780820380516001836020036101000a031916815260200191505b509250505060405180910390f35b3480156107a657600080fd5b506108d3600480360381019080803590602001908201803590602001908080601f0160208091040260200160405190810160405280939291908181526020018383808284378201915050505050509192919290803590602001908201803590602001908080601f0160208091040260200160405190810160405280939291908181526020018383808284378201915050505050509192919290803590602001908201803590602001908080601f0160208091040260200160405190810160405280939291908181526020018383808284378201915050505050509192919290803590602001908201803590602001908080601f0160208091040260200160405190810160405280939291908181526020018383808284378201915050505050509192919290505050612c16565b604051808215151515815260200191505060405180910390f35b3480156108f957600080fd5b50610a26600480360381019080803590602001908201803590602001908080601f0160208091040260200160405190810160405280939291908181526020018383808284378201915050505050509192919290803590602001908201803590602001908080601f0160208091040260200160405190810160405280939291908181526020018383808284378201915050505050509192919290803590602001908201803590602001908080601f0160208091040260200160405190810160405280939291908181526020018383808284378201915050505050509192919290803590602001908201803590602001908080601f0160208091040260200160405190810160405280939291908181526020018383808284378201915050505050509192919290505050613300565b005b348015610a3457600080fd5b50610b61600480360381019080803590602001908201803590602001908080601f0160208091040260200160405190810160405280939291908181526020018383808284378201915050505050509192919290803590602001908201803590602001908080601f0160208091040260200160405190810160405280939291908181526020018383808284378201915050505050509192919290803590602001908201803590602001908080601f0160208091040260200160405190810160405280939291908181526020018383808284378201915050505050509192919290803590602001908201803590602001908080601f01602080910402602001604051908101604052809392919081815260200183838082843782019150505050505091929192905050506137ba565b005b348015610b6f57600080fd5b50610c56600480360381019080803590602001908201803590602001908080601f0160208091040260200160405190810160405280939291908181526020018383808284378201915050505050509192919290803590602001908201803590602001908080601f0160208091040260200160405190810160405280939291908181526020018383808284378201915050505050509192919290803590602001908201803590602001908080601f0160208091040260200160405190810160405280939291908181526020018383808284378201915050505050509192919290505050613c74565b6040518080602001828103825283818151815260200191508051906020019080838360005b83811015610c96578082015181840152602081019050610c7b565b50505050905090810190601f168015610cc35780820380516001836020036101000a031916815260200191505b509250505060405180910390f35b348015610cdd57600080fd5b50610e0a600480360381019080803590602001908201803590602001908080601f0160208091040260200160405190810160405280939291908181526020018383808284378201915050505050509192919290803590602001908201803590602001908080601f0160208091040260200160405190810160405280939291908181526020018383808284378201915050505050509192919290803590602001908201803590602001908080601f0160208091040260200160405190810160405280939291908181526020018383808284378201915050505050509192919290803590602001908201803590602001908080601f0160208091040260200160405190810160405280939291908181526020018383808284378201915050505050509192919290505050614120565b005b348015610e1857600080fd5b50610e756004803603810190808035906020019082018035906020019190919293919293908035906020019082018035906020019190919293919293908035906020019082018035906020019190919293919293905050506145da565b604051808215151515815260200191505060405180910390f35b348015610e9b57600080fd5b50610fc8600480360381019080803590602001908201803590602001908080601f0160208091040260200160405190810160405280939291908181526020018383808284378201915050505050509192919290803590602001908201803590602001908080601f0160208091040260200160405190810160405280939291908181526020018383808284378201915050505050509192919290803590602001908201803590602001908080601f0160208091040260200160405190810160405280939291908181526020018383808284378201915050505050509192919290803590602001908201803590602001908080601f0160208091040260200160405190810160405280939291908181526020018383808284378201915050505050509192919290505050614b89565b005b348015610fd657600080fd5b50611103600480360381019080803590602001908201803590602001908080601f0160208091040260200160405190810160405280939291908181526020018383808284378201915050505050509192919290803590602001908201803590602001908080601f0160208091040260200160405190810160405280939291908181526020018383808284378201915050505050509192919290803590602001908201803590602001908080601f0160208091040260200160405190810160405280939291908181526020018383808284378201915050505050509192919290803590602001908201803590602001908080601f0160208091040260200160405190810160405280939291908181526020018383808284378201915050505050509192919290505050615043565b005b34801561111157600080fd5b506111f8600480360381019080803590602001908201803590602001908080601f0160208091040260200160405190810160405280939291908181526020018383808284378201915050505050509192919290803590602001908201803590602001908080601f0160208091040260200160405190810160405280939291908181526020018383808284378201915050505050509192919290803590602001908201803590602001908080601f01602080910402602001604051908101604052809392919081815260200183838082843782019150505050505091929192905050506154fd565b6040518080602001828103825283818151815260200191508051906020019080838360005b8381101561123857808201518184015260208101905061121d565b50505050905090810190601f1680156112655780820380516001836020036101000a031916815260200191505b509250505060405180910390f35b34801561127f57600080fd5b50611366600480360381019080803590602001908201803590602001908080601f0160208091040260200160405190810160405280939291908181526020018383808284378201915050505050509192919290803590602001908201803590602001908080601f0160208091040260200160405190810160405280939291908181526020018383808284378201915050505050509192919290803590602001908201803590602001908080601f01602080910402602001604051908101604052809392919081815260200183838082843782019150505050505091929192905050506159a9565b6040518080602001828103825283818151815260200191508051906020019080838360005b838110156113a657808201518184015260208101905061138b565b50505050905090810190601f1680156113d35780820380516001836020036101000a031916815260200191505b509250505060405180910390f35b60608060008090505b600280549050811015611881576002866040518082805190602001908083835b60208310151561142f578051825260208201915060208101905060208303925061140a565b6001836020036101000a0380198251168184511680821785525050505050509050019150506020604051808303816000865af1158015611473573d6000803e3d6000fd5b5050506040513d602081101561148857600080fd5b810190808051906020019092919050505060001916600280838154811015156114ad57fe5b906000526020600020906003020160010160405180828054600181600116156101000203166002900480156115195780601f106114f7576101008083540402835291820191611519565b820191906000526020600020905b815481529060010190602001808311611505575b50509150506020604051808303816000865af115801561153d573d6000803e3d6000fd5b5050506040513d602081101561155257600080fd5b8101908080519060200190929190505050600019161480156116e157506002856040518082805190602001908083835b6020831015156115a75780518252602082019150602081019050602083039250611582565b6001836020036101000a0380198251168184511680821785525050505050509050019150506020604051808303816000865af11580156115eb573d6000803e3d6000fd5b5050506040513d602081101561160057600080fd5b8101908080519060200190929190505050600019166002808381548110151561162557fe5b906000526020600020906003020160020160405180828054600181600116156101000203166002900480156116915780601f1061166f576101008083540402835291820191611691565b820191906000526020600020905b81548152906001019060200180831161167d575b50509150506020604051808303816000865af11580156116b5573d6000803e3d6000fd5b5050506040513d60208110156116ca57600080fd5b810190808051906020019092919050505060001916145b1561187457600160009054906101000a900473ffffffffffffffffffffffffffffffffffffffff1673ffffffffffffffffffffffffffffffffffffffff166325caa8d7856040518263ffffffff167c01000000000000000000000000000000000000000000000000000000000281526004018080602001828103825283818151815260200191508051906020019080838360005b83811015611790578082015181840152602081019050611775565b50505050905090810190601f1680156117bd5780820380516001836020036101000a031916815260200191505b5092505050600060405180830381600087803b1580156117dc57600080fd5b505af11580156117f0573d6000803e3d6000fd5b505050506040513d6000823e3d601f19601f82011682018060405250602081101561181a57600080fd5b81019080805164010000000081111561183257600080fd5b8281019050602081018481111561184857600080fd5b815185600182028301116401000000008211171561186557600080fd5b50509291905050509150611881565b80806001019150506113ea565b81925050509392505050565b60608060008090505b600280549050811015611d2d576002866040518082805190602001908083835b6020831015156118db57805182526020820191506020810190506020830392506118b6565b6001836020036101000a0380198251168184511680821785525050505050509050019150506020604051808303816000865af115801561191f573d6000803e3d6000fd5b5050506040513d602081101561193457600080fd5b8101908080519060200190929190505050600019166002808381548110151561195957fe5b906000526020600020906003020160010160405180828054600181600116156101000203166002900480156119c55780601f106119a35761010080835404028352918201916119c5565b820191906000526020600020905b8154815290600101906020018083116119b1575b50509150506020604051808303816000865af11580156119e9573d6000803e3d6000fd5b5050506040513d60208110156119fe57600080fd5b810190808051906020019092919050505060001916148015611b8d57506002856040518082805190602001908083835b602083101515611a535780518252602082019150602081019050602083039250611a2e565b6001836020036101000a0380198251168184511680821785525050505050509050019150506020604051808303816000865af1158015611a97573d6000803e3d6000fd5b5050506040513d6020811015611aac57600080fd5b81019080805190602001909291905050506000191660028083815481101515611ad157fe5b90600052602060002090600302016002016040518082805460018160011615610100020316600290048015611b3d5780601f10611b1b576101008083540402835291820191611b3d565b820191906000526020600020905b815481529060010190602001808311611b29575b50509150506020604051808303816000865af1158015611b61573d6000803e3d6000fd5b5050506040513d6020811015611b7657600080fd5b810190808051906020019092919050505060001916145b15611d2057600160009054906101000a900473ffffffffffffffffffffffffffffffffffffffff1673ffffffffffffffffffffffffffffffffffffffff16631febec6a856040518263ffffffff167c01000000000000000000000000000000000000000000000000000000000281526004018080602001828103825283818151815260200191508051906020019080838360005b83811015611c3c578082015181840152602081019050611c21565b50505050905090810190601f168015611c695780820380516001836020036101000a031916815260200191505b5092505050600060405180830381600087803b158015611c8857600080fd5b505af1158015611c9c573d6000803e3d6000fd5b505050506040513d6000823e3d601f19601f820116820180604052506020811015611cc657600080fd5b810190808051640100000000811115611cde57600080fd5b82810190506020810184811115611cf457600080fd5b8151856001820283011164010000000082111715611d1157600080fd5b50509291905050509150611d2d565b8080600101915050611896565b81925050509392505050565b60008060009054906101000a900473ffffffffffffffffffffffffffffffffffffffff1673ffffffffffffffffffffffffffffffffffffffff163373ffffffffffffffffffffffffffffffffffffffff16141515611dff576040517f08c379a000000000000000000000000000000000000000000000000000000000815260040180806020018281038252600e8152602001807f4e6f7420417574686f72697a656400000000000000000000000000000000000081525060200191505060405180910390fd5b600280549050905090565b60608060008090505b6002805490508110156122aa576002866040518082805190602001908083835b602083101515611e585780518252602082019150602081019050602083039250611e33565b6001836020036101000a0380198251168184511680821785525050505050509050019150506020604051808303816000865af1158015611e9c573d6000803e3d6000fd5b5050506040513d6020811015611eb157600080fd5b81019080805190602001909291905050506000191660028083815481101515611ed657fe5b90600052602060002090600302016001016040518082805460018160011615610100020316600290048015611f425780601f10611f20576101008083540402835291820191611f42565b820191906000526020600020905b815481529060010190602001808311611f2e575b50509150506020604051808303816000865af1158015611f66573d6000803e3d6000fd5b5050506040513d6020811015611f7b57600080fd5b81019080805190602001909291905050506000191614801561210a57506002856040518082805190602001908083835b602083101515611fd05780518252602082019150602081019050602083039250611fab565b6001836020036101000a0380198251168184511680821785525050505050509050019150506020604051808303816000865af1158015612014573d6000803e3d6000fd5b5050506040513d602081101561202957600080fd5b8101908080519060200190929190505050600019166002808381548110151561204e57fe5b906000526020600020906003020160020160405180828054600181600116156101000203166002900480156120ba5780601f106120985761010080835404028352918201916120ba565b820191906000526020600020905b8154815290600101906020018083116120a6575b50509150506020604051808303816000865af11580156120de573d6000803e3d6000fd5b5050506040513d60208110156120f357600080fd5b810190808051906020019092919050505060001916145b1561229d57600160009054906101000a900473ffffffffffffffffffffffffffffffffffffffff1673ffffffffffffffffffffffffffffffffffffffff1663abfcb425856040518263ffffffff167c01000000000000000000000000000000000000000000000000000000000281526004018080602001828103825283818151815260200191508051906020019080838360005b838110156121b957808201518184015260208101905061219e565b50505050905090810190601f1680156121e65780820380516001836020036101000a031916815260200191505b5092505050600060405180830381600087803b15801561220557600080fd5b505af1158015612219573d6000803e3d6000fd5b505050506040513d6000823e3d601f19601f82011682018060405250602081101561224357600080fd5b81019080805164010000000081111561225b57600080fd5b8281019050602081018481111561227157600080fd5b815185600182028301116401000000008211171561228e57600080fd5b505092919050505091506122aa565b8080600101915050611e13565b81925050509392505050565b60608060008090505b600280549050811015612756576002866040518082805190602001908083835b60208310151561230457805182526020820191506020810190506020830392506122df565b6001836020036101000a0380198251168184511680821785525050505050509050019150506020604051808303816000865af1158015612348573d6000803e3d6000fd5b5050506040513d602081101561235d57600080fd5b8101908080519060200190929190505050600019166002808381548110151561238257fe5b906000526020600020906003020160010160405180828054600181600116156101000203166002900480156123ee5780601f106123cc5761010080835404028352918201916123ee565b820191906000526020600020905b8154815290600101906020018083116123da575b50509150506020604051808303816000865af1158015612412573d6000803e3d6000fd5b5050506040513d602081101561242757600080fd5b8101908080519060200190929190505050600019161480156125b657506002856040518082805190602001908083835b60208310151561247c5780518252602082019150602081019050602083039250612457565b6001836020036101000a0380198251168184511680821785525050505050509050019150506020604051808303816000865af11580156124c0573d6000803e3d6000fd5b5050506040513d60208110156124d557600080fd5b810190808051906020019092919050505060001916600280838154811015156124fa57fe5b906000526020600020906003020160020160405180828054600181600116156101000203166002900480156125665780601f10612544576101008083540402835291820191612566565b820191906000526020600020905b815481529060010190602001808311612552575b50509150506020604051808303816000865af115801561258a573d6000803e3d6000fd5b5050506040513d602081101561259f57600080fd5b810190808051906020019092919050505060001916145b1561274957600160009054906101000a900473ffffffffffffffffffffffffffffffffffffffff1673ffffffffffffffffffffffffffffffffffffffff16636932cf81856040518263ffffffff167c01000000000000000000000000000000000000000000000000000000000281526004018080602001828103825283818151815260200191508051906020019080838360005b8381101561266557808201518184015260208101905061264a565b50505050905090810190601f1680156126925780820380516001836020036101000a031916815260200191505b5092505050600060405180830381600087803b1580156126b157600080fd5b505af11580156126c5573d6000803e3d6000fd5b505050506040513d6000823e3d601f19601f8201168201806040525060208110156126ef57600080fd5b81019080805164010000000081111561270757600080fd5b8281019050602081018481111561271d57600080fd5b815185600182028301116401000000008211171561273a57600080fd5b50509291905050509150612756565b80806001019150506122bf565b81925050509392505050565b606061276c615e55565b60008090505b600280549050811015612c055760028787604051808383808284378201915050925050506020604051808303816000865af11580156127b5573d6000803e3d6000fd5b5050506040513d60208110156127ca57600080fd5b810190808051906020019092919050505060001916600280838154811015156127ef57fe5b9060005260206000209060030201600101604051808280546001816001161561010002031660029004801561285b5780601f1061283957610100808354040283529182019161285b565b820191906000526020600020905b815481529060010190602001808311612847575b50509150506020604051808303816000865af115801561287f573d6000803e3d6000fd5b5050506040513d602081101561289457600080fd5b8101908080519060200190929190505050600019161480156129dd575060028585604051808383808284378201915050925050506020604051808303816000865af11580156128e7573d6000803e3d6000fd5b5050506040513d60208110156128fc57600080fd5b8101908080519060200190929190505050600019166002808381548110151561292157fe5b9060005260206000209060030201600201604051808280546001816001161561010002031660029004801561298d5780601f1061296b57610100808354040283529182019161298d565b820191906000526020600020905b815481529060010190602001808311612979575b50509150506020604051808303816000865af11580156129b1573d6000803e3d6000fd5b5050506040513d60208110156129c657600080fd5b810190808051906020019092919050505060001916145b15612bf8576002818154811015156129f157fe5b906000526020600020906003020160606040519081016040529081600082018054600181600116156101000203166002900480601f016020809104026020016040519081016040528092919081815260200182805460018160011615610100020316600290048015612aa45780601f10612a7957610100808354040283529160200191612aa4565b820191906000526020600020905b815481529060010190602001808311612a8757829003601f168201915b50505050508152602001600182018054600181600116156101000203166002900480601f016020809104026020016040519081016040528092919081815260200182805460018160011615610100020316600290048015612b465780601f10612b1b57610100808354040283529160200191612b46565b820191906000526020600020905b815481529060010190602001808311612b2957829003601f168201915b50505050508152602001600282018054600181600116156101000203166002900480601f016020809104026020016040519081016040528092919081815260200182805460018160011615610100020316600290048015612be85780601f10612bbd57610100808354040283529160200191612be8565b820191906000526020600020905b815481529060010190602001808311612bcb57829003601f168201915b5050505050815250509150612c05565b8080600101915050612772565b816000015192505050949350505050565b60008083600015156004826040518082805190602001908083835b602083101515612c565780518252602082019150602081019050602083039250612c31565b6001836020036101000a038019825116818451168082178552505050505050905001915050908152602001604051809103902060009054906101000a900460ff161515141515612d0e576040517f08c379a000000000000000000000000000000000000000000000000000000000815260040180806020018281038252600e8152602001807f4163636f756e742065786973747300000000000000000000000000000000000081525060200191505060405180910390fd5b600091505b6002805490508210156132f1576002876040518082805190602001908083835b602083101515612d585780518252602082019150602081019050602083039250612d33565b6001836020036101000a0380198251168184511680821785525050505050509050019150506020604051808303816000865af1158015612d9c573d6000803e3d6000fd5b5050506040513d6020811015612db157600080fd5b81019080805190602001909291905050506000191660028084815481101515612dd657fe5b90600052602060002090600302016001016040518082805460018160011615610100020316600290048015612e425780601f10612e20576101008083540402835291820191612e42565b820191906000526020600020905b815481529060010190602001808311612e2e575b50509150506020604051808303816000865af1158015612e66573d6000803e3d6000fd5b5050506040513d6020811015612e7b57600080fd5b81019080805190602001909291905050506000191614801561300a57506002866040518082805190602001908083835b602083101515612ed05780518252602082019150602081019050602083039250612eab565b6001836020036101000a0380198251168184511680821785525050505050509050019150506020604051808303816000865af1158015612f14573d6000803e3d6000fd5b5050506040513d6020811015612f2957600080fd5b81019080805190602001909291905050506000191660028084815481101515612f4e57fe5b90600052602060002090600302016002016040518082805460018160011615610100020316600290048015612fba5780601f10612f98576101008083540402835291820191612fba565b820191906000526020600020905b815481529060010190602001808311612fa6575b50509150506020604051808303816000865af1158015612fde573d6000803e3d6000fd5b5050506040513d6020811015612ff357600080fd5b810190808051906020019092919050505060001916145b156132e457600160009054906101000a900473ffffffffffffffffffffffffffffffffffffffff1673ffffffffffffffffffffffffffffffffffffffff166361b22f41858760028681548110151561305e57fe5b90600052602060002090600302016000016040518463ffffffff167c010000000000000000000000000000000000000000000000000000000002815260040180806020018060200180602001848103845287818151815260200191508051906020019080838360005b838110156130e25780820151818401526020810190506130c7565b50505050905090810190601f16801561310f5780820380516001836020036101000a031916815260200191505b50848103835286818151815260200191508051906020019080838360005b8381101561314857808201518184015260208101905061312d565b50505050905090810190601f1680156131755780820380516001836020036101000a031916815260200191505b508481038252858181546001816001161561010002031660029004815260200191508054600181600116156101000203166002900480156131f75780601f106131cc576101008083540402835291602001916131f7565b820191906000526020600020905b8154815290600101906020018083116131da57829003601f168201915b50509650505050505050602060405180830381600087803b15801561321b57600080fd5b505af115801561322f573d6000803e3d6000fd5b505050506040513d602081101561324557600080fd5b81019080805190602001909291905050505060016004866040518082805190602001908083835b602083101515613291578051825260208201915060208101905060208303925061326c565b6001836020036101000a038019825116818451168082178552505050505050905001915050908152602001604051809103902060006101000a81548160ff021916908315150217905550600192506132f6565b8180600101925050612d13565b600092505b5050949350505050565b60008090505b6002805490508110156137b3576002856040518082805190602001908083835b60208310151561334b5780518252602082019150602081019050602083039250613326565b6001836020036101000a0380198251168184511680821785525050505050509050019150506020604051808303816000865af115801561338f573d6000803e3d6000fd5b5050506040513d60208110156133a457600080fd5b810190808051906020019092919050505060001916600280838154811015156133c957fe5b906000526020600020906003020160010160405180828054600181600116156101000203166002900480156134355780601f10613413576101008083540402835291820191613435565b820191906000526020600020905b815481529060010190602001808311613421575b50509150506020604051808303816000865af1158015613459573d6000803e3d6000fd5b5050506040513d602081101561346e57600080fd5b8101908080519060200190929190505050600019161480156135fd57506002846040518082805190602001908083835b6020831015156134c3578051825260208201915060208101905060208303925061349e565b6001836020036101000a0380198251168184511680821785525050505050509050019150506020604051808303816000865af1158015613507573d6000803e3d6000fd5b5050506040513d602081101561351c57600080fd5b8101908080519060200190929190505050600019166002808381548110151561354157fe5b906000526020600020906003020160020160405180828054600181600116156101000203166002900480156135ad5780601f1061358b5761010080835404028352918201916135ad565b820191906000526020600020905b815481529060010190602001808311613599575b50509150506020604051808303816000865af11580156135d1573d6000803e3d6000fd5b5050506040513d60208110156135e657600080fd5b810190808051906020019092919050505060001916145b156137a657600160009054906101000a900473ffffffffffffffffffffffffffffffffffffffff1673ffffffffffffffffffffffffffffffffffffffff1663becc6f7284846040518363ffffffff167c0100000000000000000000000000000000000000000000000000000000028152600401808060200180602001838103835285818151815260200191508051906020019080838360005b838110156136b1578082015181840152602081019050613696565b50505050905090810190601f1680156136de5780820380516001836020036101000a031916815260200191505b50838103825284818151815260200191508051906020019080838360005b838110156137175780820151818401526020810190506136fc565b50505050905090810190601f1680156137445780820380516001836020036101000a031916815260200191505b50945050505050602060405180830381600087803b15801561376557600080fd5b505af1158015613779573d6000803e3d6000fd5b505050506040513d602081101561378f57600080fd5b8101908080519060200190929190505050506137b3565b8080600101915050613306565b5050505050565b60008090505b600280549050811015613c6d576002856040518082805190602001908083835b60208310151561380557805182526020820191506020810190506020830392506137e0565b6001836020036101000a0380198251168184511680821785525050505050509050019150506020604051808303816000865af1158015613849573d6000803e3d6000fd5b5050506040513d602081101561385e57600080fd5b8101908080519060200190929190505050600019166002808381548110151561388357fe5b906000526020600020906003020160010160405180828054600181600116156101000203166002900480156138ef5780601f106138cd5761010080835404028352918201916138ef565b820191906000526020600020905b8154815290600101906020018083116138db575b50509150506020604051808303816000865af1158015613913573d6000803e3d6000fd5b5050506040513d602081101561392857600080fd5b810190808051906020019092919050505060001916148015613ab757506002846040518082805190602001908083835b60208310151561397d5780518252602082019150602081019050602083039250613958565b6001836020036101000a0380198251168184511680821785525050505050509050019150506020604051808303816000865af11580156139c1573d6000803e3d6000fd5b5050506040513d60208110156139d657600080fd5b810190808051906020019092919050505060001916600280838154811015156139fb57fe5b90600052602060002090600302016002016040518082805460018160011615610100020316600290048015613a675780601f10613a45576101008083540402835291820191613a67565b820191906000526020600020905b815481529060010190602001808311613a53575b50509150506020604051808303816000865af1158015613a8b573d6000803e3d6000fd5b5050506040513d6020811015613aa057600080fd5b810190808051906020019092919050505060001916145b15613c6057600160009054906101000a900473ffffffffffffffffffffffffffffffffffffffff1673ffffffffffffffffffffffffffffffffffffffff166304d0623f84846040518363ffffffff167c0100000000000000000000000000000000000000000000000000000000028152600401808060200180602001838103835285818151815260200191508051906020019080838360005b83811015613b6b578082015181840152602081019050613b50565b50505050905090810190601f168015613b985780820380516001836020036101000a031916815260200191505b50838103825284818151815260200191508051906020019080838360005b83811015613bd1578082015181840152602081019050613bb6565b50505050905090810190601f168015613bfe5780820380516001836020036101000a031916815260200191505b50945050505050602060405180830381600087803b158015613c1f57600080fd5b505af1158015613c33573d6000803e3d6000fd5b505050506040513d6020811015613c4957600080fd5b810190808051906020019092919050505050613c6d565b80806001019150506137c0565b5050505050565b60608060008090505b600280549050811015614114576002866040518082805190602001908083835b602083101515613cc25780518252602082019150602081019050602083039250613c9d565b6001836020036101000a0380198251168184511680821785525050505050509050019150506020604051808303816000865af1158015613d06573d6000803e3d6000fd5b5050506040513d6020811015613d1b57600080fd5b81019080805190602001909291905050506000191660028083815481101515613d4057fe5b90600052602060002090600302016001016040518082805460018160011615610100020316600290048015613dac5780601f10613d8a576101008083540402835291820191613dac565b820191906000526020600020905b815481529060010190602001808311613d98575b50509150506020604051808303816000865af1158015613dd0573d6000803e3d6000fd5b5050506040513d6020811015613de557600080fd5b810190808051906020019092919050505060001916148015613f7457506002856040518082805190602001908083835b602083101515613e3a5780518252602082019150602081019050602083039250613e15565b6001836020036101000a0380198251168184511680821785525050505050509050019150506020604051808303816000865af1158015613e7e573d6000803e3d6000fd5b5050506040513d6020811015613e9357600080fd5b81019080805190602001909291905050506000191660028083815481101515613eb857fe5b90600052602060002090600302016002016040518082805460018160011615610100020316600290048015613f245780601f10613f02576101008083540402835291820191613f24565b820191906000526020600020905b815481529060010190602001808311613f10575b50509150506020604051808303816000865af1158015613f48573d6000803e3d6000fd5b5050506040513d6020811015613f5d57600080fd5b810190808051906020019092919050505060001916145b1561410757600160009054906101000a900473ffffffffffffffffffffffffffffffffffffffff1673ffffffffffffffffffffffffffffffffffffffff166314b3ee68856040518263ffffffff167c01000000000000000000000000000000000000000000000000000000000281526004018080602001828103825283818151815260200191508051906020019080838360005b83811015614023578082015181840152602081019050614008565b50505050905090810190601f1680156140505780820380516001836020036101000a031916815260200191505b5092505050600060405180830381600087803b15801561406f57600080fd5b505af1158015614083573d6000803e3d6000fd5b505050506040513d6000823e3d601f19601f8201168201806040525060208110156140ad57600080fd5b8101908080516401000000008111156140c557600080fd5b828101905060208101848111156140db57600080fd5b81518560018202830111640100000000821117156140f857600080fd5b50509291905050509150614114565b8080600101915050613c7d565b81925050509392505050565b60008090505b6002805490508110156145d3576002856040518082805190602001908083835b60208310151561416b5780518252602082019150602081019050602083039250614146565b6001836020036101000a0380198251168184511680821785525050505050509050019150506020604051808303816000865af11580156141af573d6000803e3d6000fd5b5050506040513d60208110156141c457600080fd5b810190808051906020019092919050505060001916600280838154811015156141e957fe5b906000526020600020906003020160010160405180828054600181600116156101000203166002900480156142555780601f10614233576101008083540402835291820191614255565b820191906000526020600020905b815481529060010190602001808311614241575b50509150506020604051808303816000865af1158015614279573d6000803e3d6000fd5b5050506040513d602081101561428e57600080fd5b81019080805190602001909291905050506000191614801561441d57506002846040518082805190602001908083835b6020831015156142e357805182526020820191506020810190506020830392506142be565b6001836020036101000a0380198251168184511680821785525050505050509050019150506020604051808303816000865af1158015614327573d6000803e3d6000fd5b5050506040513d602081101561433c57600080fd5b8101908080519060200190929190505050600019166002808381548110151561436157fe5b906000526020600020906003020160020160405180828054600181600116156101000203166002900480156143cd5780601f106143ab5761010080835404028352918201916143cd565b820191906000526020600020905b8154815290600101906020018083116143b9575b50509150506020604051808303816000865af11580156143f1573d6000803e3d6000fd5b5050506040513d602081101561440657600080fd5b810190808051906020019092919050505060001916145b156145c657600160009054906101000a900473ffffffffffffffffffffffffffffffffffffffff1673ffffffffffffffffffffffffffffffffffffffff1663aa9bded784846040518363ffffffff167c0100000000000000000000000000000000000000000000000000000000028152600401808060200180602001838103835285818151815260200191508051906020019080838360005b838110156144d15780820151818401526020810190506144b6565b50505050905090810190601f1680156144fe5780820380516001836020036101000a031916815260200191505b50838103825284818151815260200191508051906020019080838360005b8381101561453757808201518184015260208101905061451c565b50505050905090810190601f1680156145645780820380516001836020036101000a031916815260200191505b50945050505050602060405180830381600087803b15801561458557600080fd5b505af1158015614599573d6000803e3d6000fd5b505050506040513d60208110156145af57600080fd5b8101908080519060200190929190505050506145d3565b8080600101915050614126565b5050505050565b60006145e4615e55565b6000809054906101000a900473ffffffffffffffffffffffffffffffffffffffff1673ffffffffffffffffffffffffffffffffffffffff163373ffffffffffffffffffffffffffffffffffffffff161415156146a8576040517f08c379a000000000000000000000000000000000000000000000000000000000815260040180806020018281038252600e8152602001807f4e6f7420417574686f72697a656400000000000000000000000000000000000081525060200191505060405180910390fd5b87878080601f01602080910402602001604051908101604052809392919081815260200183838082843782019150505050505086868080601f01602080910402602001604051908101604052809392919081815260200183838082843782019150505050505085858080601f0160208091040260200160405190810160405280939291908181526020018383808284378201915050505050506060806060859250849150839050600015156003866040518082805190602001908083835b60208310151561478b5780518252602082019150602081019050602083039250614766565b6001836020036101000a038019825116818451168082178552505050505050905001915050908152602001604051809103902060009054906101000a900460ff161515141515614843576040517f08c379a000000000000000000000000000000000000000000000000000000000815260040180806020018281038252600a8152602001807f554944206578697374730000000000000000000000000000000000000000000081525060200191505060405180910390fd5b600083511115156148bc576040517f08c379a00000000000000000000000000000000000000000000000000000000081526004018080602001828103825260188152602001807f56616c69642062616e6b206e616d65207265717569726564000000000000000081525060200191505060405180910390fd5b6008825111151561495b576040517f08c379a00000000000000000000000000000000000000000000000000000000081526004018080602001828103825260268152602001807f5549442073686f756c642062652067726561746572207468616e20382063686181526020017f726163746572000000000000000000000000000000000000000000000000000081525060400191505060405180910390fd5b600881511115156149fa576040517f08c379a000000000000000000000000000000000000000000000000000000000815260040180806020018281038252602b8152602001807f50617373636f64652073686f756c642062652067726561746572207468616e2081526020017f382063686172616374657200000000000000000000000000000000000000000081525060400191505060405180910390fd5b6060604051908101604052808f8f8080601f01602080910402602001604051908101604052809392919081815260200183838082843782019150505050505081526020018d8d8080601f01602080910402602001604051908101604052809392919081815260200183838082843782019150505050505081526020018b8b8080601f0160208091040260200160405190810160405280939291908181526020018383808284378201915050505050508152509650600287908060018154018082558091505090600182039060005260206000209060030201600090919290919091506000820151816000019080519060200190614af8929190615e77565b506020820151816001019080519060200190614b15929190615e77565b506040820151816002019080519060200190614b32929190615e77565b50505050600160038d8d60405180838380828437820191505092505050908152602001604051809103902060006101000a81548160ff02191690831515021790555060019750505050505050509695505050505050565b60008090505b60028054905081101561503c576002856040518082805190602001908083835b602083101515614bd45780518252602082019150602081019050602083039250614baf565b6001836020036101000a0380198251168184511680821785525050505050509050019150506020604051808303816000865af1158015614c18573d6000803e3d6000fd5b5050506040513d6020811015614c2d57600080fd5b81019080805190602001909291905050506000191660028083815481101515614c5257fe5b90600052602060002090600302016001016040518082805460018160011615610100020316600290048015614cbe5780601f10614c9c576101008083540402835291820191614cbe565b820191906000526020600020905b815481529060010190602001808311614caa575b50509150506020604051808303816000865af1158015614ce2573d6000803e3d6000fd5b5050506040513d6020811015614cf757600080fd5b810190808051906020019092919050505060001916148015614e8657506002846040518082805190602001908083835b602083101515614d4c5780518252602082019150602081019050602083039250614d27565b6001836020036101000a0380198251168184511680821785525050505050509050019150506020604051808303816000865af1158015614d90573d6000803e3d6000fd5b5050506040513d6020811015614da557600080fd5b81019080805190602001909291905050506000191660028083815481101515614dca57fe5b90600052602060002090600302016002016040518082805460018160011615610100020316600290048015614e365780601f10614e14576101008083540402835291820191614e36565b820191906000526020600020905b815481529060010190602001808311614e22575b50509150506020604051808303816000865af1158015614e5a573d6000803e3d6000fd5b5050506040513d6020811015614e6f57600080fd5b810190808051906020019092919050505060001916145b1561502f57600160009054906101000a900473ffffffffffffffffffffffffffffffffffffffff1673ffffffffffffffffffffffffffffffffffffffff1663da2264bb84846040518363ffffffff167c0100000000000000000000000000000000000000000000000000000000028152600401808060200180602001838103835285818151815260200191508051906020019080838360005b83811015614f3a578082015181840152602081019050614f1f565b50505050905090810190601f168015614f675780820380516001836020036101000a031916815260200191505b50838103825284818151815260200191508051906020019080838360005b83811015614fa0578082015181840152602081019050614f85565b50505050905090810190601f168015614fcd5780820380516001836020036101000a031916815260200191505b50945050505050602060405180830381600087803b158015614fee57600080fd5b505af1158015615002573d6000803e3d6000fd5b505050506040513d602081101561501857600080fd5b81019080805190602001909291905050505061503c565b8080600101915050614b8f565b5050505050565b60008090505b6002805490508110156154f6576002856040518082805190602001908083835b60208310151561508e5780518252602082019150602081019050602083039250615069565b6001836020036101000a0380198251168184511680821785525050505050509050019150506020604051808303816000865af11580156150d2573d6000803e3d6000fd5b5050506040513d60208110156150e757600080fd5b8101908080519060200190929190505050600019166002808381548110151561510c57fe5b906000526020600020906003020160010160405180828054600181600116156101000203166002900480156151785780601f10615156576101008083540402835291820191615178565b820191906000526020600020905b815481529060010190602001808311615164575b50509150506020604051808303816000865af115801561519c573d6000803e3d6000fd5b5050506040513d60208110156151b157600080fd5b81019080805190602001909291905050506000191614801561534057506002846040518082805190602001908083835b60208310151561520657805182526020820191506020810190506020830392506151e1565b6001836020036101000a0380198251168184511680821785525050505050509050019150506020604051808303816000865af115801561524a573d6000803e3d6000fd5b5050506040513d602081101561525f57600080fd5b8101908080519060200190929190505050600019166002808381548110151561528457fe5b906000526020600020906003020160020160405180828054600181600116156101000203166002900480156152f05780601f106152ce5761010080835404028352918201916152f0565b820191906000526020600020905b8154815290600101906020018083116152dc575b50509150506020604051808303816000865af1158015615314573d6000803e3d6000fd5b5050506040513d602081101561532957600080fd5b810190808051906020019092919050505060001916145b156154e957600160009054906101000a900473ffffffffffffffffffffffffffffffffffffffff1673ffffffffffffffffffffffffffffffffffffffff1663c244149084846040518363ffffffff167c0100000000000000000000000000000000000000000000000000000000028152600401808060200180602001838103835285818151815260200191508051906020019080838360005b838110156153f45780820151818401526020810190506153d9565b50505050905090810190601f1680156154215780820380516001836020036101000a031916815260200191505b50838103825284818151815260200191508051906020019080838360005b8381101561545a57808201518184015260208101905061543f565b50505050905090810190601f1680156154875780820380516001836020036101000a031916815260200191505b50945050505050602060405180830381600087803b1580156154a857600080fd5b505af11580156154bc573d6000803e3d6000fd5b505050506040513d60208110156154d257600080fd5b8101908080519060200190929190505050506154f6565b8080600101915050615049565b5050505050565b60608060008090505b60028054905081101561599d576002866040518082805190602001908083835b60208310151561554b5780518252602082019150602081019050602083039250615526565b6001836020036101000a0380198251168184511680821785525050505050509050019150506020604051808303816000865af115801561558f573d6000803e3d6000fd5b5050506040513d60208110156155a457600080fd5b810190808051906020019092919050505060001916600280838154811015156155c957fe5b906000526020600020906003020160010160405180828054600181600116156101000203166002900480156156355780601f10615613576101008083540402835291820191615635565b820191906000526020600020905b815481529060010190602001808311615621575b50509150506020604051808303816000865af1158015615659573d6000803e3d6000fd5b5050506040513d602081101561566e57600080fd5b8101908080519060200190929190505050600019161480156157fd57506002856040518082805190602001908083835b6020831015156156c3578051825260208201915060208101905060208303925061569e565b6001836020036101000a0380198251168184511680821785525050505050509050019150506020604051808303816000865af1158015615707573d6000803e3d6000fd5b5050506040513d602081101561571c57600080fd5b8101908080519060200190929190505050600019166002808381548110151561574157fe5b906000526020600020906003020160020160405180828054600181600116156101000203166002900480156157ad5780601f1061578b5761010080835404028352918201916157ad565b820191906000526020600020905b815481529060010190602001808311615799575b50509150506020604051808303816000865af11580156157d1573d6000803e3d6000fd5b5050506040513d60208110156157e657600080fd5b810190808051906020019092919050505060001916145b1561599057600160009054906101000a900473ffffffffffffffffffffffffffffffffffffffff1673ffffffffffffffffffffffffffffffffffffffff1663465ca664856040518263ffffffff167c01000000000000000000000000000000000000000000000000000000000281526004018080602001828103825283818151815260200191508051906020019080838360005b838110156158ac578082015181840152602081019050615891565b50505050905090810190601f1680156158d95780820380516001836020036101000a031916815260200191505b5092505050600060405180830381600087803b1580156158f857600080fd5b505af115801561590c573d6000803e3d6000fd5b505050506040513d6000823e3d601f19601f82011682018060405250602081101561593657600080fd5b81019080805164010000000081111561594e57600080fd5b8281019050602081018481111561596457600080fd5b815185600182028301116401000000008211171561598157600080fd5b5050929190505050915061599d565b8080600101915050615506565b81925050509392505050565b60608060008090505b600280549050811015615e49576002866040518082805190602001908083835b6020831015156159f757805182526020820191506020810190506020830392506159d2565b6001836020036101000a0380198251168184511680821785525050505050509050019150506020604051808303816000865af1158015615a3b573d6000803e3d6000fd5b5050506040513d6020811015615a5057600080fd5b81019080805190602001909291905050506000191660028083815481101515615a7557fe5b90600052602060002090600302016001016040518082805460018160011615610100020316600290048015615ae15780601f10615abf576101008083540402835291820191615ae1565b820191906000526020600020905b815481529060010190602001808311615acd575b50509150506020604051808303816000865af1158015615b05573d6000803e3d6000fd5b5050506040513d6020811015615b1a57600080fd5b810190808051906020019092919050505060001916148015615ca957506002856040518082805190602001908083835b602083101515615b6f5780518252602082019150602081019050602083039250615b4a565b6001836020036101000a0380198251168184511680821785525050505050509050019150506020604051808303816000865af1158015615bb3573d6000803e3d6000fd5b5050506040513d6020811015615bc857600080fd5b81019080805190602001909291905050506000191660028083815481101515615bed57fe5b90600052602060002090600302016002016040518082805460018160011615610100020316600290048015615c595780601f10615c37576101008083540402835291820191615c59565b820191906000526020600020905b815481529060010190602001808311615c45575b50509150506020604051808303816000865af1158015615c7d573d6000803e3d6000fd5b5050506040513d6020811015615c9257600080fd5b810190808051906020019092919050505060001916145b15615e3c57600160009054906101000a900473ffffffffffffffffffffffffffffffffffffffff1673ffffffffffffffffffffffffffffffffffffffff1663e8d6221f856040518263ffffffff167c01000000000000000000000000000000000000000000000000000000000281526004018080602001828103825283818151815260200191508051906020019080838360005b83811015615d58578082015181840152602081019050615d3d565b50505050905090810190601f168015615d855780820380516001836020036101000a031916815260200191505b5092505050600060405180830381600087803b158015615da457600080fd5b505af1158015615db8573d6000803e3d6000fd5b505050506040513d6000823e3d601f19601f820116820180604052506020811015615de257600080fd5b810190808051640100000000811115615dfa57600080fd5b82810190506020810184811115615e1057600080fd5b8151856001820283011164010000000082111715615e2d57600080fd5b50509291905050509150615e49565b80806001019150506159b2565b81925050509392505050565b6060604051908101604052806060815260200160608152602001606081525090565b828054600181600116156101000203166002900490600052602060002090601f016020900481019282601f10615eb857805160ff1916838001178555615ee6565b82800160010185558215615ee6579182015b82811115615ee5578251825591602001919060010190615eca565b5b509050615ef39190615ef7565b5090565b615f1991905b80821115615f15576000816000905550600101615efd565b5090565b905600a165627a7a72305820432be90a27a9dfc39b66c7259f93a3f46afd5da1d4c2bc48ea83db6f5fb3202c0029608060405234801561001057600080fd5b50612447806100206000396000f3006080604052600436106100c5576000357c0100000000000000000000000000000000000000000000000000000000900463ffffffff16806304d0623f146100ca57806314b3ee68146101915780631febec6a1461027357806325caa8d714610355578063465ca6641461043757806361b22f41146105195780636932cf8114610626578063aa9bded714610708578063abfcb425146107cf578063becc6f72146108b1578063c244149014610978578063da2264bb14610a3f578063e8d6221f14610b06575b600080fd5b3480156100d657600080fd5b50610177600480360381019080803590602001908201803590602001908080601f0160208091040260200160405190810160405280939291908181526020018383808284378201915050505050509192919290803590602001908201803590602001908080601f0160208091040260200160405190810160405280939291908181526020018383808284378201915050505050509192919290505050610be8565b604051808215151515815260200191505060405180910390f35b34801561019d57600080fd5b506101f8600480360381019080803590602001908201803590602001908080601f0160208091040260200160405190810160405280939291908181526020018383808284378201915050505050509192919290505050610d5e565b6040518080602001828103825283818151815260200191508051906020019080838360005b8381101561023857808201518184015260208101905061021d565b50505050905090810190601f1680156102655780820380516001836020036101000a031916815260200191505b509250505060405180910390f35b34801561027f57600080fd5b506102da600480360381019080803590602001908201803590602001908080601f0160208091040260200160405190810160405280939291908181526020018383808284378201915050505050509192919290505050610f55565b6040518080602001828103825283818151815260200191508051906020019080838360005b8381101561031a5780820151818401526020810190506102ff565b50505050905090810190601f1680156103475780820380516001836020036101000a031916815260200191505b509250505060405180910390f35b34801561036157600080fd5b506103bc600480360381019080803590602001908201803590602001908080601f016020809104026020016040519081016040528093929190818152602001838380828437820191505050505050919291929050505061114c565b6040518080602001828103825283818151815260200191508051906020019080838360005b838110156103fc5780820151818401526020810190506103e1565b50505050905090810190601f1680156104295780820380516001836020036101000a031916815260200191505b509250505060405180910390f35b34801561044357600080fd5b5061049e600480360381019080803590602001908201803590602001908080601f0160208091040260200160405190810160405280939291908181526020018383808284378201915050505050509192919290505050611343565b6040518080602001828103825283818151815260200191508051906020019080838360005b838110156104de5780820151818401526020810190506104c3565b50505050905090810190601f16801561050b5780820380516001836020036101000a031916815260200191505b509250505060405180910390f35b34801561052557600080fd5b5061060c600480360381019080803590602001908201803590602001908080601f0160208091040260200160405190810160405280939291908181526020018383808284378201915050505050509192919290803590602001908201803590602001908080601f0160208091040260200160405190810160405280939291908181526020018383808284378201915050505050509192919290803590602001908201803590602001908080601f016020809104026020016040519081016040528093929190818152602001838380828437820191505050505050919291929050505061153a565b604051808215151515815260200191505060405180910390f35b34801561063257600080fd5b5061068d600480360381019080803590602001908201803590602001908080601f0160208091040260200160405190810160405280939291908181526020018383808284378201915050505050509192919290505050611739565b6040518080602001828103825283818151815260200191508051906020019080838360005b838110156106cd5780820151818401526020810190506106b2565b50505050905090810190601f1680156106fa5780820380516001836020036101000a031916815260200191505b509250505060405180910390f35b34801561071457600080fd5b506107b5600480360381019080803590602001908201803590602001908080601f0160208091040260200160405190810160405280939291908181526020018383808284378201915050505050509192919290803590602001908201803590602001908080601f0160208091040260200160405190810160405280939291908181526020018383808284378201915050505050509192919290505050611930565b604051808215151515815260200191505060405180910390f35b3480156107db57600080fd5b50610836600480360381019080803590602001908201803590602001908080601f0160208091040260200160405190810160405280939291908181526020018383808284378201915050505050509192919290505050611aa6565b6040518080602001828103825283818151815260200191508051906020019080838360005b8381101561087657808201518184015260208101905061085b565b50505050905090810190601f1680156108a35780820380516001836020036101000a031916815260200191505b509250505060405180910390f35b3480156108bd57600080fd5b5061095e600480360381019080803590602001908201803590602001908080601f0160208091040260200160405190810160405280939291908181526020018383808284378201915050505050509192919290803590602001908201803590602001908080601f0160208091040260200160405190810160405280939291908181526020018383808284378201915050505050509192919290505050611c9d565b604051808215151515815260200191505060405180910390f35b34801561098457600080fd5b50610a25600480360381019080803590602001908201803590602001908080601f0160208091040260200160405190810160405280939291908181526020018383808284378201915050505050509192919290803590602001908201803590602001908080601f0160208091040260200160405190810160405280939291908181526020018383808284378201915050505050509192919290505050611e13565b604051808215151515815260200191505060405180910390f35b348015610a4b57600080fd5b50610aec600480360381019080803590602001908201803590602001908080601f0160208091040260200160405190810160405280939291908181526020018383808284378201915050505050509192919290803590602001908201803590602001908080601f0160208091040260200160405190810160405280939291908181526020018383808284378201915050505050509192919290505050611f89565b604051808215151515815260200191505060405180910390f35b348015610b1257600080fd5b50610b6d600480360381019080803590602001908201803590602001908080601f01602080910402602001604051908101604052809392919081815260200183838082843782019150505050505091929192905050506120ff565b6040518080602001828103825283818151815260200191508051906020019080838360005b83811015610bad578082015181840152602081019050610b92565b50505050905090810190601f168015610bda5780820380516001836020036101000a031916815260200191505b509250505060405180910390f35b600082600080826040518082805190602001908083835b602083101515610c245780518252602082019150602081019050602083039250610bff565b6001836020036101000a038019825116818451168082178552505050505050905001915050908152602001604051809103902060080154111515610cd0576040517f08c379a00000000000000000000000000000000000000000000000000000000081526004018080602001828103825260128152602001807f4163636f756e74206e6f7420657869737473000000000000000000000000000081525060200191505060405180910390fd5b826000856040518082805190602001908083835b602083101515610d095780518252602082019150602081019050602083039250610ce4565b6001836020036101000a03801982511681845116808217855250505050505090500191505090815260200160405180910390206003019080519060200190610d529291906122f6565b50600191505092915050565b606081600080826040518082805190602001908083835b602083101515610d9a5780518252602082019150602081019050602083039250610d75565b6001836020036101000a038019825116818451168082178552505050505050905001915050908152602001604051809103902060080154111515610e46576040517f08c379a00000000000000000000000000000000000000000000000000000000081526004018080602001828103825260128152602001807f4163636f756e74206e6f7420657869737473000000000000000000000000000081525060200191505060405180910390fd5b6000836040518082805190602001908083835b602083101515610e7e5780518252602082019150602081019050602083039250610e59565b6001836020036101000a03801982511681845116808217855250505050505090500191505090815260200160405180910390206003018054600181600116156101000203166002900480601f016020809104026020016040519081016040528092919081815260200182805460018160011615610100020316600290048015610f485780601f10610f1d57610100808354040283529160200191610f48565b820191906000526020600020905b815481529060010190602001808311610f2b57829003601f168201915b5050505050915050919050565b606081600080826040518082805190602001908083835b602083101515610f915780518252602082019150602081019050602083039250610f6c565b6001836020036101000a03801982511681845116808217855250505050505090500191505090815260200160405180910390206008015411151561103d576040517f08c379a00000000000000000000000000000000000000000000000000000000081526004018080602001828103825260128152602001807f4163636f756e74206e6f7420657869737473000000000000000000000000000081525060200191505060405180910390fd5b6000836040518082805190602001908083835b6020831015156110755780518252602082019150602081019050602083039250611050565b6001836020036101000a03801982511681845116808217855250505050505090500191505090815260200160405180910390206002018054600181600116156101000203166002900480601f01602080910402602001604051908101604052809291908181526020018280546001816001161561010002031660029004801561113f5780601f106111145761010080835404028352916020019161113f565b820191906000526020600020905b81548152906001019060200180831161112257829003601f168201915b5050505050915050919050565b606081600080826040518082805190602001908083835b6020831015156111885780518252602082019150602081019050602083039250611163565b6001836020036101000a038019825116818451168082178552505050505050905001915050908152602001604051809103902060080154111515611234576040517f08c379a00000000000000000000000000000000000000000000000000000000081526004018080602001828103825260128152602001807f4163636f756e74206e6f7420657869737473000000000000000000000000000081525060200191505060405180910390fd5b6000836040518082805190602001908083835b60208310151561126c5780518252602082019150602081019050602083039250611247565b6001836020036101000a03801982511681845116808217855250505050505090500191505090815260200160405180910390206007018054600181600116156101000203166002900480601f0160208091040260200160405190810160405280929190818152602001828054600181600116156101000203166002900480156113365780601f1061130b57610100808354040283529160200191611336565b820191906000526020600020905b81548152906001019060200180831161131957829003601f168201915b5050505050915050919050565b606081600080826040518082805190602001908083835b60208310151561137f578051825260208201915060208101905060208303925061135a565b6001836020036101000a03801982511681845116808217855250505050505090500191505090815260200160405180910390206008015411151561142b576040517f08c379a00000000000000000000000000000000000000000000000000000000081526004018080602001828103825260128152602001807f4163636f756e74206e6f7420657869737473000000000000000000000000000081525060200191505060405180910390fd5b6000836040518082805190602001908083835b602083101515611463578051825260208201915060208101905060208303925061143e565b6001836020036101000a03801982511681845116808217855250505050505090500191505090815260200160405180910390206004018054600181600116156101000203166002900480601f01602080910402602001604051908101604052809291908181526020018280546001816001161561010002031660029004801561152d5780601f106115025761010080835404028352916020019161152d565b820191906000526020600020905b81548152906001019060200180831161151057829003601f168201915b5050505050915050919050565b6000610120604051908101604052808581526020018481526020016020604051908101604052806000815250815260200160206040519081016040528060008152508152602001602060405190810160405280600081525081526020016020604051908101604052806000815250815260200160206040519081016040528060008152508152602001838152602001428152506000846040518082805190602001908083835b60208310151561160557805182526020820191506020810190506020830392506115e0565b6001836020036101000a03801982511681845116808217855250505050505090500191505090815260200160405180910390206000820151816000019080519060200190611654929190612376565b506020820151816001019080519060200190611671929190612376565b50604082015181600201908051906020019061168e929190612376565b5060608201518160030190805190602001906116ab929190612376565b5060808201518160040190805190602001906116c8929190612376565b5060a08201518160050190805190602001906116e5929190612376565b5060c0820151816006019080519060200190611702929190612376565b5060e082015181600701908051906020019061171f929190612376565b506101008201518160080155905050600190509392505050565b606081600080826040518082805190602001908083835b6020831015156117755780518252602082019150602081019050602083039250611750565b6001836020036101000a038019825116818451168082178552505050505050905001915050908152602001604051809103902060080154111515611821576040517f08c379a00000000000000000000000000000000000000000000000000000000081526004018080602001828103825260128152602001807f4163636f756e74206e6f7420657869737473000000000000000000000000000081525060200191505060405180910390fd5b6000836040518082805190602001908083835b6020831015156118595780518252602082019150602081019050602083039250611834565b6001836020036101000a03801982511681845116808217855250505050505090500191505090815260200160405180910390206000018054600181600116156101000203166002900480601f0160208091040260200160405190810160405280929190818152602001828054600181600116156101000203166002900480156119235780601f106118f857610100808354040283529160200191611923565b820191906000526020600020905b81548152906001019060200180831161190657829003601f168201915b5050505050915050919050565b600082600080826040518082805190602001908083835b60208310151561196c5780518252602082019150602081019050602083039250611947565b6001836020036101000a038019825116818451168082178552505050505050905001915050908152602001604051809103902060080154111515611a18576040517f08c379a00000000000000000000000000000000000000000000000000000000081526004018080602001828103825260128152602001807f4163636f756e74206e6f7420657869737473000000000000000000000000000081525060200191505060405180910390fd5b826000856040518082805190602001908083835b602083101515611a515780518252602082019150602081019050602083039250611a2c565b6001836020036101000a03801982511681845116808217855250505050505090500191505090815260200160405180910390206004019080519060200190611a9a9291906122f6565b50600191505092915050565b606081600080826040518082805190602001908083835b602083101515611ae25780518252602082019150602081019050602083039250611abd565b6001836020036101000a038019825116818451168082178552505050505050905001915050908152602001604051809103902060080154111515611b8e576040517f08c379a00000000000000000000000000000000000000000000000000000000081526004018080602001828103825260128152602001807f4163636f756e74206e6f7420657869737473000000000000000000000000000081525060200191505060405180910390fd5b6000836040518082805190602001908083835b602083101515611bc65780518252602082019150602081019050602083039250611ba1565b6001836020036101000a03801982511681845116808217855250505050505090500191505090815260200160405180910390206005018054600181600116156101000203166002900480601f016020809104026020016040519081016040528092919081815260200182805460018160011615610100020316600290048015611c905780601f10611c6557610100808354040283529160200191611c90565b820191906000526020600020905b815481529060010190602001808311611c7357829003601f168201915b5050505050915050919050565b600082600080826040518082805190602001908083835b602083101515611cd95780518252602082019150602081019050602083039250611cb4565b6001836020036101000a038019825116818451168082178552505050505050905001915050908152602001604051809103902060080154111515611d85576040517f08c379a00000000000000000000000000000000000000000000000000000000081526004018080602001828103825260128152602001807f4163636f756e74206e6f7420657869737473000000000000000000000000000081525060200191505060405180910390fd5b826000856040518082805190602001908083835b602083101515611dbe5780518252602082019150602081019050602083039250611d99565b6001836020036101000a03801982511681845116808217855250505050505090500191505090815260200160405180910390206002019080519060200190611e079291906122f6565b50600191505092915050565b600082600080826040518082805190602001908083835b602083101515611e4f5780518252602082019150602081019050602083039250611e2a565b6001836020036101000a038019825116818451168082178552505050505050905001915050908152602001604051809103902060080154111515611efb576040517f08c379a00000000000000000000000000000000000000000000000000000000081526004018080602001828103825260128152602001807f4163636f756e74206e6f7420657869737473000000000000000000000000000081525060200191505060405180910390fd5b826000856040518082805190602001908083835b602083101515611f345780518252602082019150602081019050602083039250611f0f565b6001836020036101000a03801982511681845116808217855250505050505090500191505090815260200160405180910390206005019080519060200190611f7d9291906122f6565b50600191505092915050565b600082600080826040518082805190602001908083835b602083101515611fc55780518252602082019150602081019050602083039250611fa0565b6001836020036101000a038019825116818451168082178552505050505050905001915050908152602001604051809103902060080154111515612071576040517f08c379a00000000000000000000000000000000000000000000000000000000081526004018080602001828103825260128152602001807f4163636f756e74206e6f7420657869737473000000000000000000000000000081525060200191505060405180910390fd5b826000856040518082805190602001908083835b6020831015156120aa5780518252602082019150602081019050602083039250612085565b6001836020036101000a038019825116818451168082178552505050505050905001915050908152602001604051809103902060060190805190602001906120f39291906122f6565b50600191505092915050565b606081600080826040518082805190602001908083835b60208310151561213b5780518252602082019150602081019050602083039250612116565b6001836020036101000a0380198251168184511680821785525050505050509050019150509081526020016040518091039020600801541115156121e7576040517f08c379a00000000000000000000000000000000000000000000000000000000081526004018080602001828103825260128152602001807f4163636f756e74206e6f7420657869737473000000000000000000000000000081525060200191505060405180910390fd5b6000836040518082805190602001908083835b60208310151561221f57805182526020820191506020810190506020830392506121fa565b6001836020036101000a03801982511681845116808217855250505050505090500191505090815260200160405180910390206006018054600181600116156101000203166002900480601f0160208091040260200160405190810160405280929190818152602001828054600181600116156101000203166002900480156122e95780601f106122be576101008083540402835291602001916122e9565b820191906000526020600020905b8154815290600101906020018083116122cc57829003601f168201915b5050505050915050919050565b828054600181600116156101000203166002900490600052602060002090601f016020900481019282601f1061233757805160ff1916838001178555612365565b82800160010185558215612365579182015b82811115612364578251825591602001919060010190612349565b5b50905061237291906123f6565b5090565b828054600181600116156101000203166002900490600052602060002090601f016020900481019282601f106123b757805160ff19168380011785556123e5565b828001600101855582156123e5579182015b828111156123e45782518255916020019190600101906123c9565b5b5090506123f291906123f6565b5090565b61241891905b808211156124145760008160009055506001016123fc565b5090565b905600a165627a7a72305820c2621cdf9f3be2286f3af2ff86d62270f9619da5cccdd501e952a70f05d66f930029",
  "source": "pragma solidity ^0.4.23;\n\nimport \"./AccountInfo.sol\";\n\n\ncontract KYC  {\n    address private owner;\n    \n    AccountInfo accInfo;\n    \n    struct Bank {\n        string name;\n        string uid;\n        string passcode;\n    }\n    \n    Bank[] private banks;\n    \n    mapping(string => bool) uniqueUid;\n    \n    mapping(string => bool) uniqueNid;\n    \n    constructor() public {\n        owner = msg.sender;\n        accInfo = new AccountInfo();\n    }\n    \n    modifier onlyOwner {\n        require(msg.sender == owner, \"Not Authorized\");\n        _;\n    }\n    \n    modifier uniqueAccount(string nid) {\n        require(uniqueNid[nid] == false, \"Account exists\");\n        _;\n    }\n    \n    \n    modifier validBankInput(string name, string uid, string pass) {\n        bytes memory n = bytes(name);\n        bytes memory u = bytes(uid);\n        bytes memory p = bytes(pass);\n        require(uniqueUid[uid] == false, \"UID exists\");\n        require(n.length > 0, \"Valid bank name required\");\n        require(u.length > 8, \"UID should be greater than 8 character\");\n        require(p.length > 8, \"Passcode should be greater than 8 character\");\n        _;\n    }\n    \n    // bank management related functions\n    \n    function registerNewBank(string name, string uid, string passcode) external \n    onlyOwner validBankInput(name, uid, passcode) returns(bool) {\n        Bank memory newBank = Bank(name, uid, passcode);\n        banks.push(newBank);\n        uniqueUid[uid] = true;\n        return true;\n    }\n    \n    function getBankCount() public view onlyOwner returns(uint){\n        return banks.length;\n    }\n    \n    function getBankInfo(string uid, string passcode) external view returns(string) {\n        Bank memory currentBank;\n        for(uint i = 0; i < banks.length; i++){\n            if(sha256(bytes(banks[i].uid)) == sha256(bytes(uid)) && sha256(bytes(banks[i].passcode)) == sha256(bytes(passcode))){\n                currentBank = banks[i];\n                break;\n            }\n        }\n        return currentBank.name;\n    }\n    \n    // Account Related functions\n    \n    function createAccount(string bankUid, string bankPass, string nid, string name)\n    public uniqueAccount(nid) returns(bool) {\n        for(uint i = 0; i < banks.length; i++){\n            if(sha256(bytes(banks[i].uid)) == sha256(bytes(bankUid)) && sha256(bytes(banks[i].passcode)) == sha256(bytes(bankPass))){\n                accInfo.accountInit(name, nid, banks[i].name);\n                uniqueNid[nid] = true;\n                return true;\n            }\n        }\n        return false;\n    }\n    \n    // setters\n    \n    function setAccountDOB(string bankUid, string bankPass, string nid, string dob) public {\n        for(uint i = 0; i < banks.length; i++){\n            if(sha256(bytes(banks[i].uid)) == sha256(bytes(bankUid)) && sha256(bytes(banks[i].passcode)) == sha256(bytes(bankPass))){\n                accInfo.setDOB(nid, dob);\n                break;\n            }\n        }\n    }\n    \n    function setAccountMobileNumber(string bankUid, string bankPass, string nid, string mobile) public {\n        for(uint i = 0; i < banks.length; i++){\n            if(sha256(bytes(banks[i].uid)) == sha256(bytes(bankUid)) && sha256(bytes(banks[i].passcode)) == sha256(bytes(bankPass))){\n                accInfo.setMobileNumber(nid, mobile);\n                break;\n            }\n        }\n    }\n    \n    function setAccountCurrentAddress(string bankUid, string bankPass, string nid, string caddress) public {\n        for(uint i = 0; i < banks.length; i++){\n            if(sha256(bytes(banks[i].uid)) == sha256(bytes(bankUid)) && sha256(bytes(banks[i].passcode)) == sha256(bytes(bankPass))){\n                accInfo.setCurrentAddress(nid, caddress);\n                break;\n            }\n        }\n    }\n    \n    function setAccountFatherName(string bankUid, string bankPass, string nid, string fatherName) public {\n        for(uint i = 0; i < banks.length; i++){\n            if(sha256(bytes(banks[i].uid)) == sha256(bytes(bankUid)) && sha256(bytes(banks[i].passcode)) == sha256(bytes(bankPass))){\n                accInfo.setFatherName(nid, fatherName);\n                break;\n            }\n        }\n    }\n    \n    function setAccountGender(string bankUid, string bankPass, string nid, string gender) public {\n        for(uint i = 0; i < banks.length; i++){\n            if(sha256(bytes(banks[i].uid)) == sha256(bytes(bankUid)) && sha256(bytes(banks[i].passcode)) == sha256(bytes(bankPass))){\n                accInfo.setGender(nid, gender);\n                break;\n            }\n        }\n    }\n    \n    // getters\n    \n    function getAccountName(string bankUid, string bankPass, string nid) public view returns(string) {\n        string memory str;\n        for(uint i = 0; i < banks.length; i++){\n            if(sha256(bytes(banks[i].uid)) == sha256(bytes(bankUid)) && sha256(bytes(banks[i].passcode)) == sha256(bytes(bankPass))){\n                str = accInfo.getName(nid);\n                break;\n            }\n        }\n        return str;\n    }\n    \n    function getAccountDOB(string bankUid, string bankPass, string nid) public view returns(string) {\n        string memory str;\n        for(uint i = 0; i < banks.length; i++){\n            if(sha256(bytes(banks[i].uid)) == sha256(bytes(bankUid)) && sha256(bytes(banks[i].passcode)) == sha256(bytes(bankPass))){\n                str = accInfo.getDOB(nid);\n                break;\n            }\n        }\n        return str;\n    }\n    \n    function getAccountMobileNumber(string bankUid, string bankPass, string nid) public view returns(string) {\n        string memory str;\n        for(uint i = 0; i < banks.length; i++){\n            if(sha256(bytes(banks[i].uid)) == sha256(bytes(bankUid)) && sha256(bytes(banks[i].passcode)) == sha256(bytes(bankPass))){\n                str = accInfo.getMobileNumber(nid);\n                break;\n            }\n        }\n        return str;\n    }\n    \n    function getAccountCurrentAddress(string bankUid, string bankPass, string nid) public view returns(string) {\n        string memory str;\n        for(uint i = 0; i < banks.length; i++){\n            if(sha256(bytes(banks[i].uid)) == sha256(bytes(bankUid)) && sha256(bytes(banks[i].passcode)) == sha256(bytes(bankPass))){\n                str = accInfo.getCurrentAddress(nid);\n                break;\n            }\n        }\n        return str;\n    }\n    \n    function getAccountFatherName(string bankUid, string bankPass, string nid) public view returns(string) {\n        string memory str;\n        for(uint i = 0; i < banks.length; i++){\n            if(sha256(bytes(banks[i].uid)) == sha256(bytes(bankUid)) && sha256(bytes(banks[i].passcode)) == sha256(bytes(bankPass))){\n                str = accInfo.getFatherName(nid);\n                break;\n            }\n        }\n        return str;\n    }\n    \n    function getAccountGender(string bankUid, string bankPass, string nid) public view returns(string) {\n        string memory str;\n        for(uint i = 0; i < banks.length; i++){\n            if(sha256(bytes(banks[i].uid)) == sha256(bytes(bankUid)) && sha256(bytes(banks[i].passcode)) == sha256(bytes(bankPass))){\n                str = accInfo.getGender(nid);\n                break;\n            }\n        }\n        return str;\n    }\n    \n    function getAccountSeederBank(string bankUid, string bankPass, string nid) public view returns(string) {\n        string memory str;\n        for(uint i = 0; i < banks.length; i++){\n            if(sha256(bytes(banks[i].uid)) == sha256(bytes(bankUid)) && sha256(bytes(banks[i].passcode)) == sha256(bytes(bankPass))){\n                str = accInfo.getSeederBank(nid);\n                break;\n            }\n        }\n        return str;\n    }\n    \n}",
  "sourcePath": "D:\\E-KYC-master\\smart-contract-v3\\contracts\\KYC.sol",
  "compiler": {
    "name": "solc",
    "version": "0.4.24+commit.e67f0147.Emscripten.clang"
  },
  "schemaVersion": "2.0.1",
  "updatedAt": "2018-11-14T11:42:25.469Z"
}