{
  "contractName": "AccountInformation",
  "abi": [
    {
      "inputs": [],
      "payable": false,
      "stateMutability": "nonpayable",
      "type": "constructor"
    },
    {
      "constant": false,
      "inputs": [
        {
          "name": "_name",
          "type": "string"
        },
        {
          "name": "_uid",
          "type": "string"
        },
        {
          "name": "_passcode",
          "type": "string"
        }
      ],
      "name": "registerNewBank",
      "outputs": [
        {
          "name": "",
          "type": "bool"
        }
      ],
      "payable": false,
      "stateMutability": "nonpayable",
      "type": "function"
    },
    {
      "constant": true,
      "inputs": [],
      "name": "getBankCount",
      "outputs": [
        {
          "name": "",
          "type": "uint256"
        }
      ],
      "payable": false,
      "stateMutability": "view",
      "type": "function"
    },
    {
      "constant": true,
      "inputs": [],
      "name": "getAccountCount",
      "outputs": [
        {
          "name": "",
          "type": "uint256"
        }
      ],
      "payable": false,
      "stateMutability": "view",
      "type": "function"
    },
    {
      "constant": true,
      "inputs": [
        {
          "name": "_uid",
          "type": "string"
        },
        {
          "name": "_passcode",
          "type": "string"
        }
      ],
      "name": "getBankInfo",
      "outputs": [
        {
          "name": "",
          "type": "string"
        }
      ],
      "payable": false,
      "stateMutability": "view",
      "type": "function"
    },
    {
      "constant": false,
      "inputs": [
        {
          "name": "_bankUid",
          "type": "string"
        },
        {
          "name": "_bankPass",
          "type": "string"
        },
        {
          "name": "_customerNid",
          "type": "string"
        },
        {
          "name": "_customerName",
          "type": "string"
        },
        {
          "name": "_customerAge",
          "type": "uint256"
        }
      ],
      "name": "createAccount",
      "outputs": [
        {
          "name": "",
          "type": "bool"
        }
      ],
      "payable": false,
      "stateMutability": "nonpayable",
      "type": "function"
    },
    {
      "constant": true,
      "inputs": [
        {
          "name": "_bankUid",
          "type": "string"
        },
        {
          "name": "_bankPass",
          "type": "string"
        },
        {
          "name": "_customerNid",
          "type": "string"
        }
      ],
      "name": "accessAccount",
      "outputs": [
        {
          "name": "name",
          "type": "string"
        },
        {
          "name": "nid",
          "type": "string"
        },
        {
          "name": "age",
          "type": "uint256"
        },
        {
          "name": "seederBank",
          "type": "string"
        },
        {
          "name": "time",
          "type": "uint256"
        }
      ],
      "payable": false,
      "stateMutability": "view",
      "type": "function"
    },
    {
      "constant": false,
      "inputs": [
        {
          "name": "_bankUid",
          "type": "string"
        },
        {
          "name": "_bankPass",
          "type": "string"
        },
        {
          "name": "_customerNid",
          "type": "string"
        },
        {
          "name": "newName",
          "type": "string"
        }
      ],
      "name": "updateAccountName",
      "outputs": [
        {
          "name": "",
          "type": "bool"
        }
      ],
      "payable": false,
      "stateMutability": "nonpayable",
      "type": "function"
    },
    {
      "constant": false,
      "inputs": [
        {
          "name": "_bankUid",
          "type": "string"
        },
        {
          "name": "_bankPass",
          "type": "string"
        },
        {
          "name": "_customerNid",
          "type": "string"
        },
        {
          "name": "newNid",
          "type": "string"
        }
      ],
      "name": "updateAccountNid",
      "outputs": [
        {
          "name": "",
          "type": "bool"
        }
      ],
      "payable": false,
      "stateMutability": "nonpayable",
      "type": "function"
    },
    {
      "constant": false,
      "inputs": [
        {
          "name": "_bankUid",
          "type": "string"
        },
        {
          "name": "_bankPass",
          "type": "string"
        },
        {
          "name": "_customerNid",
          "type": "string"
        },
        {
          "name": "newAge",
          "type": "uint256"
        }
      ],
      "name": "updateAccountAge",
      "outputs": [
        {
          "name": "",
          "type": "bool"
        }
      ],
      "payable": false,
      "stateMutability": "nonpayable",
      "type": "function"
    }
  ],
  "bytecode": "0x608060405234801561001057600080fd5b50336000806101000a81548173ffffffffffffffffffffffffffffffffffffffff021916908373ffffffffffffffffffffffffffffffffffffffff160217905550612aa3806100606000396000f300608060405260043610610099576000357c0100000000000000000000000000000000000000000000000000000000900463ffffffff1680632bbe789d1461009e5780632e44715d1461012b5780632ff3c7bd1461015657806343f3e562146101f1578063a98e4e77146102bd578063aba90614146102e8578063b76ccee4146104b2578063dff9597014610535578063e3119dd0146105d0575b600080fd5b3480156100aa57600080fd5b5061011160048036038101908080359060200190820180359060200191909192939192939080359060200190820180359060200191909192939192939080359060200190820180359060200191909192939192939080359060200190929190505050610675565b604051808215151515815260200191505060405180910390f35b34801561013757600080fd5b50610140610a8d565b6040518082815260200191505060405180910390f35b34801561016257600080fd5b506101d7600480360381019080803590602001908201803590602001919091929391929390803590602001908201803590602001919091929391929390803590602001908201803590602001919091929391929390803590602001908201803590602001919091929391929390505050610af5565b604051808215151515815260200191505060405180910390f35b3480156101fd57600080fd5b50610242600480360381019080803590602001908201803590602001919091929391929390803590602001908201803590602001919091929391929390505050610f19565b6040518080602001828103825283818151815260200191508051906020019080838360005b83811015610282578082015181840152602081019050610267565b50505050905090810190601f1680156102af5780820380516001836020036101000a031916815260200191505b509250505060405180910390f35b3480156102c957600080fd5b506102d26113cf565b6040518082815260200191505060405180910390f35b3480156102f457600080fd5b50610351600480360381019080803590602001908201803590602001919091929391929390803590602001908201803590602001919091929391929390803590602001908201803590602001919091929391929390505050611437565b60405180806020018060200186815260200180602001858152602001848103845289818151815260200191508051906020019080838360005b838110156103a557808201518184015260208101905061038a565b50505050905090810190601f1680156103d25780820380516001836020036101000a031916815260200191505b50848103835288818151815260200191508051906020019080838360005b8381101561040b5780820151818401526020810190506103f0565b50505050905090810190601f1680156104385780820380516001836020036101000a031916815260200191505b50848103825286818151815260200191508051906020019080838360005b83811015610471578082015181840152602081019050610456565b50505050905090810190601f16801561049e5780820380516001836020036101000a031916815260200191505b509850505050505050505060405180910390f35b3480156104be57600080fd5b5061051b60048036038101908080359060200190820180359060200191909192939192939080359060200190820180359060200191909192939192939080359060200190820180359060200191909192939192939050505061173e565b604051808215151515815260200191505060405180910390f35b34801561054157600080fd5b506105b6600480360381019080803590602001908201803590602001919091929391929390803590602001908201803590602001919091929391929390803590602001908201803590602001919091929391929390803590602001908201803590602001919091929391929390505050611a94565b604051808215151515815260200191505060405180910390f35b3480156105dc57600080fd5b5061065b60048036038101908080359060200190820180359060200191909192939192939080359060200190820180359060200191909192939192939080359060200190820180359060200191909192939192939080359060200190820180359060200191909192939192939080359060200190929190505050611f9f565b604051808215151515815260200191505060405180910390f35b60008060008091505b600180549050821015610a7b5760028a8a604051808383808284378201915050925050506020604051808303816000865af11580156106c1573d6000803e3d6000fd5b5050506040513d60208110156106d657600080fd5b81019080805190602001909291905050506000191660026001848154811015156106fc57fe5b906000526020600020906003020160010160405180828054600181600116156101000203166002900480156107685780601f10610746576101008083540402835291820191610768565b820191906000526020600020905b815481529060010190602001808311610754575b50509150506020604051808303816000865af115801561078c573d6000803e3d6000fd5b5050506040513d60208110156107a157600080fd5b8101908080519060200190929190505050600019161480156108eb575060028888604051808383808284378201915050925050506020604051808303816000865af11580156107f4573d6000803e3d6000fd5b5050506040513d602081101561080957600080fd5b810190808051906020019092919050505060001916600260018481548110151561082f57fe5b9060005260206000209060030201600201604051808280546001816001161561010002031660029004801561089b5780601f1061087957610100808354040283529182019161089b565b820191906000526020600020905b815481529060010190602001808311610887575b50509150506020604051808303816000865af11580156108bf573d6000803e3d6000fd5b5050506040513d60208110156108d457600080fd5b810190808051906020019092919050505060001916145b15610a6e57600090505b600280549050811015610a6d5760028686604051808383808284378201915050925050506020604051808303816000865af1158015610938573d6000803e3d6000fd5b5050506040513d602081101561094d57600080fd5b8101908080519060200190929190505050600019166002808381548110151561097257fe5b906000526020600020906005020160010160405180828054600181600116156101000203166002900480156109de5780601f106109bc5761010080835404028352918201916109de565b820191906000526020600020905b8154815290600101906020018083116109ca575b50509150506020604051808303816000865af1158015610a02573d6000803e3d6000fd5b5050506040513d6020811015610a1757600080fd5b8101908080519060200190929190505050600019161415610a605783600282815481101515610a4257fe5b90600052602060002090600502016002018190555060019250610a80565b80806001019150506108f5565b5b818060010192505061067e565b600092505b5050979650505050505050565b60008060009054906101000a900473ffffffffffffffffffffffffffffffffffffffff1673ffffffffffffffffffffffffffffffffffffffff163373ffffffffffffffffffffffffffffffffffffffff16141515610aea57600080fd5b600180549050905090565b60008060008091505b600180549050821015610f065760028b8b604051808383808284378201915050925050506020604051808303816000865af1158015610b41573d6000803e3d6000fd5b5050506040513d6020811015610b5657600080fd5b8101908080519060200190929190505050600019166002600184815481101515610b7c57fe5b90600052602060002090600302016001016040518082805460018160011615610100020316600290048015610be85780601f10610bc6576101008083540402835291820191610be8565b820191906000526020600020905b815481529060010190602001808311610bd4575b50509150506020604051808303816000865af1158015610c0c573d6000803e3d6000fd5b5050506040513d6020811015610c2157600080fd5b810190808051906020019092919050505060001916148015610d6b575060028989604051808383808284378201915050925050506020604051808303816000865af1158015610c74573d6000803e3d6000fd5b5050506040513d6020811015610c8957600080fd5b8101908080519060200190929190505050600019166002600184815481101515610caf57fe5b90600052602060002090600302016002016040518082805460018160011615610100020316600290048015610d1b5780601f10610cf9576101008083540402835291820191610d1b565b820191906000526020600020905b815481529060010190602001808311610d07575b50509150506020604051808303816000865af1158015610d3f573d6000803e3d6000fd5b5050506040513d6020811015610d5457600080fd5b810190808051906020019092919050505060001916145b15610ef957600090505b600280549050811015610ef85760028787604051808383808284378201915050925050506020604051808303816000865af1158015610db8573d6000803e3d6000fd5b5050506040513d6020811015610dcd57600080fd5b81019080805190602001909291905050506000191660028083815481101515610df257fe5b90600052602060002090600502016001016040518082805460018160011615610100020316600290048015610e5e5780601f10610e3c576101008083540402835291820191610e5e565b820191906000526020600020905b815481529060010190602001808311610e4a575b50509150506020604051808303816000865af1158015610e82573d6000803e3d6000fd5b5050506040513d6020811015610e9757600080fd5b8101908080519060200190929190505050600019161415610eeb578484600283815481101515610ec357fe5b90600052602060002090600502016000019190610ee1929190612900565b5060019250610f0b565b8080600101915050610d75565b5b8180600101925050610afe565b600092505b505098975050505050505050565b6060610f23612980565b60008090505b6001805490508110156113be5760028787604051808383808284378201915050925050506020604051808303816000865af1158015610f6c573d6000803e3d6000fd5b5050506040513d6020811015610f8157600080fd5b8101908080519060200190929190505050600019166002600183815481101515610fa757fe5b906000526020600020906003020160010160405180828054600181600116156101000203166002900480156110135780601f10610ff1576101008083540402835291820191611013565b820191906000526020600020905b815481529060010190602001808311610fff575b50509150506020604051808303816000865af1158015611037573d6000803e3d6000fd5b5050506040513d602081101561104c57600080fd5b810190808051906020019092919050505060001916148015611196575060028585604051808383808284378201915050925050506020604051808303816000865af115801561109f573d6000803e3d6000fd5b5050506040513d60208110156110b457600080fd5b81019080805190602001909291905050506000191660026001838154811015156110da57fe5b906000526020600020906003020160020160405180828054600181600116156101000203166002900480156111465780601f10611124576101008083540402835291820191611146565b820191906000526020600020905b815481529060010190602001808311611132575b50509150506020604051808303816000865af115801561116a573d6000803e3d6000fd5b5050506040513d602081101561117f57600080fd5b810190808051906020019092919050505060001916145b156113b1576001818154811015156111aa57fe5b906000526020600020906003020160606040519081016040529081600082018054600181600116156101000203166002900480601f01602080910402602001604051908101604052809291908181526020018280546001816001161561010002031660029004801561125d5780601f106112325761010080835404028352916020019161125d565b820191906000526020600020905b81548152906001019060200180831161124057829003601f168201915b50505050508152602001600182018054600181600116156101000203166002900480601f0160208091040260200160405190810160405280929190818152602001828054600181600116156101000203166002900480156112ff5780601f106112d4576101008083540402835291602001916112ff565b820191906000526020600020905b8154815290600101906020018083116112e257829003601f168201915b50505050508152602001600282018054600181600116156101000203166002900480601f0160208091040260200160405190810160405280929190818152602001828054600181600116156101000203166002900480156113a15780601f10611376576101008083540402835291602001916113a1565b820191906000526020600020905b81548152906001019060200180831161138457829003601f168201915b50505050508152505091506113be565b8080600101915050610f29565b816000015192505050949350505050565b60008060009054906101000a900473ffffffffffffffffffffffffffffffffffffffff1673ffffffffffffffffffffffffffffffffffffffff163373ffffffffffffffffffffffffffffffffffffffff1614151561142c57600080fd5b600280549050905090565b606080600060606000806114496129a2565b600091505b60018054905082101561172e5760028d8d604051808383808284378201915050925050506020604051808303816000865af1158015611491573d6000803e3d6000fd5b5050506040513d60208110156114a657600080fd5b81019080805190602001909291905050506000191660026001848154811015156114cc57fe5b906000526020600020906003020160010160405180828054600181600116156101000203166002900480156115385780601f10611516576101008083540402835291820191611538565b820191906000526020600020905b815481529060010190602001808311611524575b50509150506020604051808303816000865af115801561155c573d6000803e3d6000fd5b5050506040513d602081101561157157600080fd5b8101908080519060200190929190505050600019161480156116bb575060028b8b604051808383808284378201915050925050506020604051808303816000865af11580156115c4573d6000803e3d6000fd5b5050506040513d60208110156115d957600080fd5b81019080805190602001909291905050506000191660026001848154811015156115ff57fe5b9060005260206000209060030201600201604051808280546001816001161561010002031660029004801561166b5780601f1061164957610100808354040283529182019161166b565b820191906000526020600020905b815481529060010190602001808311611657575b50509150506020604051808303816000865af115801561168f573d6000803e3d6000fd5b5050506040513d60208110156116a457600080fd5b810190808051906020019092919050505060001916145b15611721576116fb89898080601f01602080910402602001604051908101604052809392919081815260200183838082843782019150505050505061252a565b905080600001519650806020015195508060400151945080606001519350806080015192505b818060010192505061144e565b5050965096509650965096915050565b6000611748612980565b6000809054906101000a900473ffffffffffffffffffffffffffffffffffffffff1673ffffffffffffffffffffffffffffffffffffffff163373ffffffffffffffffffffffffffffffffffffffff161415156117a357600080fd5b87878080601f01602080910402602001604051908101604052809392919081815260200183838082843782019150505050505086868080601f01602080910402602001604051908101604052809392919081815260200183838082843782019150505050505085858080601f0160208091040260200160405190810160405280939291908181526020018383808284378201915050505050506060806060859250849150839050600015156003866040518082805190602001908083835b6020831015156118865780518252602082019150602081019050602083039250611861565b6001836020036101000a038019825116818451168082178552505050505050905001915050908152602001604051809103902060009054906101000a900460ff1615151415156118d557600080fd5b600083511115156118e557600080fd5b600882511115156118f557600080fd5b6008815111151561190557600080fd5b6060604051908101604052808f8f8080601f01602080910402602001604051908101604052809392919081815260200183838082843782019150505050505081526020018d8d8080601f01602080910402602001604051908101604052809392919081815260200183838082843782019150505050505081526020018b8b8080601f0160208091040260200160405190810160405280939291908181526020018383808284378201915050505050508152509650600187908060018154018082558091505090600182039060005260206000209060030201600090919290919091506000820151816000019080519060200190611a039291906129d2565b506020820151816001019080519060200190611a209291906129d2565b506040820151816002019080519060200190611a3d9291906129d2565b50505050600160038d8d60405180838380828437820191505092505050908152602001604051809103902060006101000a81548160ff02191690831515021790555060019750505050505050509695505050505050565b60008060008091505b600180549050821015611f8c5760028b8b604051808383808284378201915050925050506020604051808303816000865af1158015611ae0573d6000803e3d6000fd5b5050506040513d6020811015611af557600080fd5b8101908080519060200190929190505050600019166002600184815481101515611b1b57fe5b90600052602060002090600302016001016040518082805460018160011615610100020316600290048015611b875780601f10611b65576101008083540402835291820191611b87565b820191906000526020600020905b815481529060010190602001808311611b73575b50509150506020604051808303816000865af1158015611bab573d6000803e3d6000fd5b5050506040513d6020811015611bc057600080fd5b810190808051906020019092919050505060001916148015611d0a575060028989604051808383808284378201915050925050506020604051808303816000865af1158015611c13573d6000803e3d6000fd5b5050506040513d6020811015611c2857600080fd5b8101908080519060200190929190505050600019166002600184815481101515611c4e57fe5b90600052602060002090600302016002016040518082805460018160011615610100020316600290048015611cba5780601f10611c98576101008083540402835291820191611cba565b820191906000526020600020905b815481529060010190602001808311611ca6575b50509150506020604051808303816000865af1158015611cde573d6000803e3d6000fd5b5050506040513d6020811015611cf357600080fd5b810190808051906020019092919050505060001916145b15611f7f57600090505b600280549050811015611f7e5760028787604051808383808284378201915050925050506020604051808303816000865af1158015611d57573d6000803e3d6000fd5b5050506040513d6020811015611d6c57600080fd5b81019080805190602001909291905050506000191660028083815481101515611d9157fe5b90600052602060002090600502016001016040518082805460018160011615610100020316600290048015611dfd5780601f10611ddb576101008083540402835291820191611dfd565b820191906000526020600020905b815481529060010190602001808311611de9575b50509150506020604051808303816000865af1158015611e21573d6000803e3d6000fd5b5050506040513d6020811015611e3657600080fd5b8101908080519060200190929190505050600019161415611f715760006004600283815481101515611e6457fe5b90600052602060002090600502016001016040518082805460018160011615610100020316600290048015611ed05780601f10611eae576101008083540402835291820191611ed0565b820191906000526020600020905b815481529060010190602001808311611ebc575b5050915050908152602001604051809103902060006101000a81548160ff02191690831515021790555060016004868660405180838380828437820191505092505050908152602001604051809103902060006101000a81548160ff0219169083151502179055508484600283815481101515611f4957fe5b90600052602060002090600502016001019190611f67929190612900565b5060019250611f91565b8080600101915050611d14565b5b8180600101925050611a9d565b600092505b505098975050505050505050565b600080611faa6129a2565b87878080601f016020809104026020016040519081016040528093929190818152602001838380828437820191505050505050600015156004826040518082805190602001908083835b6020831015156120195780518252602082019150602081019050602083039250611ff4565b6001836020036101000a038019825116818451168082178552505050505050905001915050908152602001604051809103902060009054906101000a900460ff16151514151561206857600080fd5b600092505b6001805490508310156125155760028d8d604051808383808284378201915050925050506020604051808303816000865af11580156120b0573d6000803e3d6000fd5b5050506040513d60208110156120c557600080fd5b81019080805190602001909291905050506000191660026001858154811015156120eb57fe5b906000526020600020906003020160010160405180828054600181600116156101000203166002900480156121575780601f10612135576101008083540402835291820191612157565b820191906000526020600020905b815481529060010190602001808311612143575b50509150506020604051808303816000865af115801561217b573d6000803e3d6000fd5b5050506040513d602081101561219057600080fd5b8101908080519060200190929190505050600019161480156122da575060028b8b604051808383808284378201915050925050506020604051808303816000865af11580156121e3573d6000803e3d6000fd5b5050506040513d60208110156121f857600080fd5b810190808051906020019092919050505060001916600260018581548110151561221e57fe5b9060005260206000209060030201600201604051808280546001816001161561010002031660029004801561228a5780601f1061226857610100808354040283529182019161228a565b820191906000526020600020905b815481529060010190602001808311612276575b50509150506020604051808303816000865af11580156122ae573d6000803e3d6000fd5b5050506040513d60208110156122c357600080fd5b810190808051906020019092919050505060001916145b156125085760a06040519081016040528088888080601f01602080910402602001604051908101604052809392919081815260200183838082843782019150505050505081526020018a8a8080601f016020809104026020016040519081016040528093929190818152602001838380828437820191505050505050815260200186815260200160018581548110151561237057fe5b90600052602060002090600302016000018054600181600116156101000203166002900480601f0160208091040260200160405190810160405280929190818152602001828054600181600116156101000203166002900480156124155780601f106123ea57610100808354040283529160200191612415565b820191906000526020600020905b8154815290600101906020018083116123f857829003601f168201915b5050505050815260200142815250915060028290806001815401808255809150509060018203906000526020600020906005020160009091929091909150600082015181600001908051906020019061246f9291906129d2565b50602082015181600101908051906020019061248c9291906129d2565b506040820151816002015560608201518160030190805190602001906124b39291906129d2565b5060808201518160040155505050600160048a8a60405180838380828437820191505092505050908152602001604051809103902060006101000a81548160ff0219169083151502179055506001935061251a565b828060010193505061206d565b600093505b5050509998505050505050505050565b6125326129a2565b61253a6129a2565b60008090505b6002805490508110156128f6576002846040518082805190602001908083835b6020831015156125855780518252602082019150602081019050602083039250612560565b6001836020036101000a0380198251168184511680821785525050505050509050019150506020604051808303816000865af11580156125c9573d6000803e3d6000fd5b5050506040513d60208110156125de57600080fd5b8101908080519060200190929190505050600019166002808381548110151561260357fe5b9060005260206000209060050201600101604051808280546001816001161561010002031660029004801561266f5780601f1061264d57610100808354040283529182019161266f565b820191906000526020600020905b81548152906001019060200180831161265b575b50509150506020604051808303816000865af1158015612693573d6000803e3d6000fd5b5050506040513d60208110156126a857600080fd5b81019080805190602001909291905050506000191614156128e9576002818154811015156126d257fe5b906000526020600020906005020160a06040519081016040529081600082018054600181600116156101000203166002900480601f0160208091040260200160405190810160405280929190818152602001828054600181600116156101000203166002900480156127855780601f1061275a57610100808354040283529160200191612785565b820191906000526020600020905b81548152906001019060200180831161276857829003601f168201915b50505050508152602001600182018054600181600116156101000203166002900480601f0160208091040260200160405190810160405280929190818152602001828054600181600116156101000203166002900480156128275780601f106127fc57610100808354040283529160200191612827565b820191906000526020600020905b81548152906001019060200180831161280a57829003601f168201915b5050505050815260200160028201548152602001600382018054600181600116156101000203166002900480601f0160208091040260200160405190810160405280929190818152602001828054600181600116156101000203166002900480156128d35780601f106128a8576101008083540402835291602001916128d3565b820191906000526020600020905b8154815290600101906020018083116128b657829003601f168201915b5050505050815260200160048201548152505091505b8080600101915050612540565b8192505050919050565b828054600181600116156101000203166002900490600052602060002090601f016020900481019282601f1061294157803560ff191683800117855561296f565b8280016001018555821561296f579182015b8281111561296e578235825591602001919060010190612953565b5b50905061297c9190612a52565b5090565b6060604051908101604052806060815260200160608152602001606081525090565b60a06040519081016040528060608152602001606081526020016000815260200160608152602001600081525090565b828054600181600116156101000203166002900490600052602060002090601f016020900481019282601f10612a1357805160ff1916838001178555612a41565b82800160010185558215612a41579182015b82811115612a40578251825591602001919060010190612a25565b5b509050612a4e9190612a52565b5090565b612a7491905b80821115612a70576000816000905550600101612a58565b5090565b905600a165627a7a72305820ceb521394bc9b74a584afdb320b7c3b9a3cda4a3b27a3d37e0d3da9013bbaba80029",
  "source": "pragma solidity ^0.4.23;\r\n\r\ncontract AccountInformation {\r\n    \r\n    address private owner;\r\n    \r\n    struct Bank {\r\n        string name;\r\n        string uid;\r\n        string passcode;\r\n    }\r\n    \r\n    struct Account {\r\n        string name;\r\n        string nid;\r\n        uint age;\r\n        string seederBank;\r\n        uint regUnixTime;\r\n    }\r\n    \r\n    Bank[] private banks;\r\n    \r\n    Account[] private accounts;\r\n    \r\n    mapping(string => bool) uniqueUid;\r\n    \r\n    mapping(string => bool) uniqueNid;\r\n    \r\n    \r\n    constructor() public {\r\n        owner = msg.sender;\r\n    }\r\n    \r\n    modifier onlyOwner {\r\n        require(msg.sender == owner);\r\n        _;\r\n    }\r\n    \r\n    modifier uniqueAccount(string nid) {\r\n        require(uniqueNid[nid] == false);\r\n        _;\r\n    }\r\n    \r\n    modifier validBankInput(string name, string uid, string pass) {\r\n        bytes memory n = bytes(name);\r\n        bytes memory u = bytes(uid);\r\n        bytes memory p = bytes(pass);\r\n        require(uniqueUid[uid] == false);\r\n        require(n.length > 0);\r\n        require(u.length > 8);\r\n        require(p.length > 8);\r\n        _;\r\n    }\r\n    \r\n    function registerNewBank(string _name, string _uid, string _passcode) external \r\n    onlyOwner validBankInput(_name, _uid, _passcode) returns(bool) {\r\n        Bank memory newBank = Bank(_name, _uid, _passcode);\r\n        banks.push(newBank);\r\n        uniqueUid[_uid] = true;\r\n        return true;\r\n    }\r\n    \r\n    function getBankCount() public view onlyOwner returns(uint){\r\n        return banks.length;\r\n    }\r\n    \r\n    function getAccountCount() public view onlyOwner returns(uint) {\r\n        return accounts.length;\r\n    }\r\n    \r\n    function getBankInfo(string _uid, string _passcode) external view returns(string) {\r\n        Bank memory currentBank;\r\n        for(uint i = 0; i < banks.length; i++){\r\n            if(sha256(bytes(banks[i].uid)) == sha256(bytes(_uid)) && sha256(bytes(banks[i].passcode)) == sha256(bytes(_passcode))){\r\n                currentBank = banks[i];\r\n                break;\r\n            }\r\n        }\r\n        return currentBank.name;\r\n    }\r\n    \r\n    function createAccount(string _bankUid, string _bankPass, string _customerNid, string _customerName, uint _customerAge)\r\n    external  uniqueAccount(_customerNid) returns(bool) {\r\n        for(uint i = 0; i < banks.length; i++){\r\n            if(sha256(bytes(banks[i].uid)) == sha256(bytes(_bankUid)) && sha256(bytes(banks[i].passcode)) == sha256(bytes(_bankPass))){\r\n                Account memory newAccount = Account(_customerName, _customerNid, _customerAge, banks[i].name, uint(now));\r\n                accounts.push(newAccount);\r\n                uniqueNid[_customerNid] = true;\r\n                return true;\r\n            }\r\n        }\r\n        return false;\r\n    }\r\n    \r\n    function accessAccount(string _bankUid, string _bankPass, string _customerNid) \r\n    external view returns(string name, string nid, uint age, string seederBank, uint time) {\r\n        for(uint i = 0; i < banks.length; i++){\r\n            if(sha256(bytes(banks[i].uid)) == sha256(bytes(_bankUid)) && sha256(bytes(banks[i].passcode)) == sha256(bytes(_bankPass))) {\r\n                Account memory acc = getAcoount(_customerNid);\r\n                name = acc.name;\r\n                nid = acc.nid;\r\n                age = acc.age;\r\n                seederBank = acc.seederBank;\r\n                time = acc.regUnixTime;\r\n            }\r\n        }\r\n    }\r\n    \r\n    function getAcoount(string _nid) private view returns(Account) {\r\n        Account memory acc;\r\n        for(uint i = 0; i < accounts.length; i++){\r\n            if(sha256(bytes(accounts[i].nid)) == sha256(bytes(_nid)))\r\n                acc = accounts[i];\r\n        }\r\n        return acc;\r\n    }\r\n    \r\n    function updateAccountName(string _bankUid, string _bankPass, string _customerNid, string newName) \r\n    external returns(bool) {\r\n        for(uint i = 0; i < banks.length; i++){\r\n            if(sha256(bytes(banks[i].uid)) == sha256(bytes(_bankUid)) && sha256(bytes(banks[i].passcode)) == sha256(bytes(_bankPass))) {\r\n                for(uint j = 0; j < accounts.length; j++){\r\n                    if(sha256(bytes(accounts[j].nid)) == sha256(bytes(_customerNid))) {\r\n                        accounts[j].name = newName;\r\n                        return true;\r\n                    }\r\n                        \r\n                }\r\n            }\r\n        }\r\n        return false;\r\n    }\r\n    \r\n    function updateAccountNid(string _bankUid, string _bankPass, string _customerNid, string newNid) \r\n    external returns(bool) {\r\n        for(uint i = 0; i < banks.length; i++){\r\n            if(sha256(bytes(banks[i].uid)) == sha256(bytes(_bankUid)) && sha256(bytes(banks[i].passcode)) == sha256(bytes(_bankPass))) {\r\n                for(uint j = 0; j < accounts.length; j++){\r\n                    if(sha256(bytes(accounts[j].nid)) == sha256(bytes(_customerNid))) {\r\n                        uniqueNid[accounts[j].nid] = false;\r\n                        uniqueNid[newNid] = true;\r\n                        accounts[j].nid = newNid;\r\n                        return true;\r\n                    }\r\n                        \r\n                }\r\n            }\r\n        }\r\n        return false;\r\n    }\r\n    \r\n    function updateAccountAge(string _bankUid, string _bankPass, string _customerNid, uint newAge) \r\n    external returns(bool) {\r\n        for(uint i = 0; i < banks.length; i++){\r\n            if(sha256(bytes(banks[i].uid)) == sha256(bytes(_bankUid)) && sha256(bytes(banks[i].passcode)) == sha256(bytes(_bankPass))) {\r\n                for(uint j = 0; j < accounts.length; j++){\r\n                    if(sha256(bytes(accounts[j].nid)) == sha256(bytes(_customerNid))) {\r\n                        accounts[j].age = newAge;\r\n                        return true;\r\n                    }\r\n                        \r\n                }\r\n            }\r\n        }\r\n        return false;\r\n    }\r\n    \r\n}",
  "sourcePath": "E:\\Ethereum Artifacts\\E-KYC\\smart-contract\\contracts\\AccountInformation.sol",
  "compiler": {
    "name": "solc",
    "version": "0.4.24+commit.e67f0147.Emscripten.clang"
  },
  "schemaVersion": "2.0.1",
  "updatedAt": "2018-10-24T06:37:36.167Z"
}