{
  "contractName": "KYC",
  "abi": [
    {
      "inputs": [],
      "payable": false,
      "stateMutability": "nonpayable",
      "type": "constructor"
    },
    {
      "constant": false,
      "inputs": [
        {
          "name": "_name",
          "type": "string"
        },
        {
          "name": "_uid",
          "type": "string"
        },
        {
          "name": "_passcode",
          "type": "string"
        }
      ],
      "name": "registerNewBank",
      "outputs": [
        {
          "name": "",
          "type": "bool"
        }
      ],
      "payable": false,
      "stateMutability": "nonpayable",
      "type": "function"
    },
    {
      "constant": true,
      "inputs": [],
      "name": "getBankCount",
      "outputs": [
        {
          "name": "",
          "type": "uint256"
        }
      ],
      "payable": false,
      "stateMutability": "view",
      "type": "function"
    },
    {
      "constant": true,
      "inputs": [],
      "name": "getAccountCount",
      "outputs": [
        {
          "name": "",
          "type": "uint256"
        }
      ],
      "payable": false,
      "stateMutability": "view",
      "type": "function"
    },
    {
      "constant": true,
      "inputs": [
        {
          "name": "_uid",
          "type": "string"
        },
        {
          "name": "_passcode",
          "type": "string"
        }
      ],
      "name": "getBankInfo",
      "outputs": [
        {
          "name": "",
          "type": "string"
        }
      ],
      "payable": false,
      "stateMutability": "view",
      "type": "function"
    },
    {
      "constant": false,
      "inputs": [
        {
          "name": "_bankUid",
          "type": "string"
        },
        {
          "name": "_bankPass",
          "type": "string"
        },
        {
          "name": "_customerInfo",
          "type": "string[]"
        }
      ],
      "name": "createAccount",
      "outputs": [],
      "payable": false,
      "stateMutability": "nonpayable",
      "type": "function"
    },
    {
      "constant": true,
      "inputs": [
        {
          "name": "_bankUid",
          "type": "string"
        },
        {
          "name": "_bankPass",
          "type": "string"
        },
        {
          "name": "_customerNid",
          "type": "string"
        }
      ],
      "name": "accessAccount",
      "outputs": [
        {
          "name": "",
          "type": "string[]"
        }
      ],
      "payable": false,
      "stateMutability": "view",
      "type": "function"
    },
    {
      "constant": false,
      "inputs": [
        {
          "name": "_bankUid",
          "type": "string"
        },
        {
          "name": "_bankPass",
          "type": "string"
        },
        {
          "name": "_customerNid",
          "type": "string"
        },
        {
          "name": "newName",
          "type": "string"
        }
      ],
      "name": "updateAccountName",
      "outputs": [
        {
          "name": "",
          "type": "bool"
        }
      ],
      "payable": false,
      "stateMutability": "nonpayable",
      "type": "function"
    },
    {
      "constant": false,
      "inputs": [
        {
          "name": "_bankUid",
          "type": "string"
        },
        {
          "name": "_bankPass",
          "type": "string"
        },
        {
          "name": "_customerNid",
          "type": "string"
        },
        {
          "name": "newNid",
          "type": "string"
        }
      ],
      "name": "updateAccountNid",
      "outputs": [
        {
          "name": "",
          "type": "bool"
        }
      ],
      "payable": false,
      "stateMutability": "nonpayable",
      "type": "function"
    },
    {
      "constant": false,
      "inputs": [
        {
          "name": "_bankUid",
          "type": "string"
        },
        {
          "name": "_bankPass",
          "type": "string"
        },
        {
          "name": "_customerNid",
          "type": "string"
        },
        {
          "name": "newDOB",
          "type": "string"
        }
      ],
      "name": "updateAccountDOB",
      "outputs": [
        {
          "name": "",
          "type": "bool"
        }
      ],
      "payable": false,
      "stateMutability": "nonpayable",
      "type": "function"
    },
    {
      "constant": false,
      "inputs": [
        {
          "name": "_bankUid",
          "type": "string"
        },
        {
          "name": "_bankPass",
          "type": "string"
        },
        {
          "name": "_customerNid",
          "type": "string"
        },
        {
          "name": "newMobile",
          "type": "string"
        }
      ],
      "name": "updateAccountMobile",
      "outputs": [
        {
          "name": "",
          "type": "bool"
        }
      ],
      "payable": false,
      "stateMutability": "nonpayable",
      "type": "function"
    },
    {
      "constant": false,
      "inputs": [
        {
          "name": "_bankUid",
          "type": "string"
        },
        {
          "name": "_bankPass",
          "type": "string"
        },
        {
          "name": "_customerNid",
          "type": "string"
        },
        {
          "name": "newAddress",
          "type": "string"
        }
      ],
      "name": "updateAccountAddress",
      "outputs": [
        {
          "name": "",
          "type": "bool"
        }
      ],
      "payable": false,
      "stateMutability": "nonpayable",
      "type": "function"
    },
    {
      "constant": false,
      "inputs": [
        {
          "name": "_bankUid",
          "type": "string"
        },
        {
          "name": "_bankPass",
          "type": "string"
        },
        {
          "name": "_customerNid",
          "type": "string"
        },
        {
          "name": "newFatherName",
          "type": "string"
        }
      ],
      "name": "updateAccountFatherName",
      "outputs": [
        {
          "name": "",
          "type": "bool"
        }
      ],
      "payable": false,
      "stateMutability": "nonpayable",
      "type": "function"
    },
    {
      "constant": false,
      "inputs": [
        {
          "name": "_bankUid",
          "type": "string"
        },
        {
          "name": "_bankPass",
          "type": "string"
        },
        {
          "name": "_customerNid",
          "type": "string"
        },
        {
          "name": "gender",
          "type": "string"
        }
      ],
      "name": "updateAccountGender",
      "outputs": [
        {
          "name": "",
          "type": "bool"
        }
      ],
      "payable": false,
      "stateMutability": "nonpayable",
      "type": "function"
    }
  ],
  "bytecode": "0x608060405234801561001057600080fd5b50336000806101000a81548173ffffffffffffffffffffffffffffffffffffffff021916908373ffffffffffffffffffffffffffffffffffffffff1602179055506148d7806100606000396000f3006080604052600436106100c5576000357c0100000000000000000000000000000000000000000000000000000000900463ffffffff1680632e44715d146100ca5780632faba483146100f55780632ff3c7bd1461013257806342e2c34d1461016f57806343f3e562146101ac578063a98e4e77146101e9578063aba9061414610214578063b76ccee414610251578063bf17e7ae1461028e578063c7b5410f146102cb578063d71c91af14610308578063da0f5a7e14610331578063dff959701461036e575b600080fd5b3480156100d657600080fd5b506100df6103ab565b6040516100ec9190614727565b60405180910390f35b34801561010157600080fd5b5061011c6004803603610117919081019061420e565b610449565b604051610129919061462a565b60405180910390f35b34801561013e57600080fd5b506101596004803603610154919081019061420e565b61085b565b604051610166919061462a565b60405180910390f35b34801561017b57600080fd5b506101966004803603610191919081019061420e565b610c6d565b6040516101a3919061462a565b60405180910390f35b3480156101b857600080fd5b506101d360048036036101ce91908101906140f5565b61107f565b6040516101e09190614645565b60405180910390f35b3480156101f557600080fd5b506101fe611529565b60405161020b9190614727565b60405180910390f35b34801561022057600080fd5b5061023b6004803603610236919081019061416a565b6115c7565b6040516102489190614608565b60405180910390f35b34801561025d57600080fd5b506102786004803603610273919081019061416a565b6119de565b604051610285919061462a565b60405180910390f35b34801561029a57600080fd5b506102b560048036036102b0919081019061420e565b611e42565b6040516102c2919061462a565b60405180910390f35b3480156102d757600080fd5b506102f260048036036102ed919081019061420e565b612254565b6040516102ff919061462a565b60405180910390f35b34801561031457600080fd5b5061032f600480360361032a91908101906142e3565b612666565b005b34801561033d57600080fd5b506103586004803603610353919081019061420e565b612dba565b604051610365919061462a565b60405180910390f35b34801561037a57600080fd5b506103956004803603610390919081019061420e565b6131cc565b6040516103a2919061462a565b60405180910390f35b60008060009054906101000a900473ffffffffffffffffffffffffffffffffffffffff1673ffffffffffffffffffffffffffffffffffffffff163373ffffffffffffffffffffffffffffffffffffffff1614151561043e576040517f08c379a0000000000000000000000000000000000000000000000000000000008152600401610435906146a7565b60405180910390fd5b600180549050905090565b60008060008091505b6001805490508210156108485760028b8b604051808383808284378201915050925050506020604051808303816000865af1158015610495573d6000803e3d6000fd5b5050506040513d601f19601f820116820180604052506104b891908101906140cc565b6000191660026001848154811015156104cd57fe5b906000526020600020906003020160010160405180828054600181600116156101000203166002900480156105395780601f10610517576101008083540402835291820191610539565b820191906000526020600020905b815481529060010190602001808311610525575b50509150506020604051808303816000865af115801561055d573d6000803e3d6000fd5b5050506040513d601f19601f8201168201806040525061058091908101906140cc565b600019161480156106b3575060028989604051808383808284378201915050925050506020604051808303816000865af11580156105c2573d6000803e3d6000fd5b5050506040513d601f19601f820116820180604052506105e591908101906140cc565b6000191660026001848154811015156105fa57fe5b906000526020600020906003020160020160405180828054600181600116156101000203166002900480156106665780601f10610644576101008083540402835291820191610666565b820191906000526020600020905b815481529060010190602001808311610652575b50509150506020604051808303816000865af115801561068a573d6000803e3d6000fd5b5050506040513d601f19601f820116820180604052506106ad91908101906140cc565b60001916145b1561083b57600090505b60028054905081101561083a5760028787604051808383808284378201915050925050506020604051808303816000865af1158015610700573d6000803e3d6000fd5b5050506040513d601f19601f8201168201806040525061072391908101906140cc565b600019166002808381548110151561073757fe5b906000526020600020906009020160010160405180828054600181600116156101000203166002900480156107a35780601f106107815761010080835404028352918201916107a3565b820191906000526020600020905b81548152906001019060200180831161078f575b50509150506020604051808303816000865af11580156107c7573d6000803e3d6000fd5b5050506040513d601f19601f820116820180604052506107ea91908101906140cc565b60001916141561082d57848460028381548110151561080557fe5b90600052602060002090600902016004019190610823929190613db6565b506001925061084d565b80806001019150506106bd565b5b8180600101925050610452565b600092505b505098975050505050505050565b60008060008091505b600180549050821015610c5a5760028b8b604051808383808284378201915050925050506020604051808303816000865af11580156108a7573d6000803e3d6000fd5b5050506040513d601f19601f820116820180604052506108ca91908101906140cc565b6000191660026001848154811015156108df57fe5b9060005260206000209060030201600101604051808280546001816001161561010002031660029004801561094b5780601f1061092957610100808354040283529182019161094b565b820191906000526020600020905b815481529060010190602001808311610937575b50509150506020604051808303816000865af115801561096f573d6000803e3d6000fd5b5050506040513d601f19601f8201168201806040525061099291908101906140cc565b60001916148015610ac5575060028989604051808383808284378201915050925050506020604051808303816000865af11580156109d4573d6000803e3d6000fd5b5050506040513d601f19601f820116820180604052506109f791908101906140cc565b600019166002600184815481101515610a0c57fe5b90600052602060002090600302016002016040518082805460018160011615610100020316600290048015610a785780601f10610a56576101008083540402835291820191610a78565b820191906000526020600020905b815481529060010190602001808311610a64575b50509150506020604051808303816000865af1158015610a9c573d6000803e3d6000fd5b5050506040513d601f19601f82011682018060405250610abf91908101906140cc565b60001916145b15610c4d57600090505b600280549050811015610c4c5760028787604051808383808284378201915050925050506020604051808303816000865af1158015610b12573d6000803e3d6000fd5b5050506040513d601f19601f82011682018060405250610b3591908101906140cc565b6000191660028083815481101515610b4957fe5b90600052602060002090600902016001016040518082805460018160011615610100020316600290048015610bb55780601f10610b93576101008083540402835291820191610bb5565b820191906000526020600020905b815481529060010190602001808311610ba1575b50509150506020604051808303816000865af1158015610bd9573d6000803e3d6000fd5b5050506040513d601f19601f82011682018060405250610bfc91908101906140cc565b600019161415610c3f578484600283815481101515610c1757fe5b90600052602060002090600902016000019190610c35929190613db6565b5060019250610c5f565b8080600101915050610acf565b5b8180600101925050610864565b600092505b505098975050505050505050565b60008060008091505b60018054905082101561106c5760028b8b604051808383808284378201915050925050506020604051808303816000865af1158015610cb9573d6000803e3d6000fd5b5050506040513d601f19601f82011682018060405250610cdc91908101906140cc565b600019166002600184815481101515610cf157fe5b90600052602060002090600302016001016040518082805460018160011615610100020316600290048015610d5d5780601f10610d3b576101008083540402835291820191610d5d565b820191906000526020600020905b815481529060010190602001808311610d49575b50509150506020604051808303816000865af1158015610d81573d6000803e3d6000fd5b5050506040513d601f19601f82011682018060405250610da491908101906140cc565b60001916148015610ed7575060028989604051808383808284378201915050925050506020604051808303816000865af1158015610de6573d6000803e3d6000fd5b5050506040513d601f19601f82011682018060405250610e0991908101906140cc565b600019166002600184815481101515610e1e57fe5b90600052602060002090600302016002016040518082805460018160011615610100020316600290048015610e8a5780601f10610e68576101008083540402835291820191610e8a565b820191906000526020600020905b815481529060010190602001808311610e76575b50509150506020604051808303816000865af1158015610eae573d6000803e3d6000fd5b5050506040513d601f19601f82011682018060405250610ed191908101906140cc565b60001916145b1561105f57600090505b60028054905081101561105e5760028787604051808383808284378201915050925050506020604051808303816000865af1158015610f24573d6000803e3d6000fd5b5050506040513d601f19601f82011682018060405250610f4791908101906140cc565b6000191660028083815481101515610f5b57fe5b90600052602060002090600902016001016040518082805460018160011615610100020316600290048015610fc75780601f10610fa5576101008083540402835291820191610fc7565b820191906000526020600020905b815481529060010190602001808311610fb3575b50509150506020604051808303816000865af1158015610feb573d6000803e3d6000fd5b5050506040513d601f19601f8201168201806040525061100e91908101906140cc565b60001916141561105157848460028381548110151561102957fe5b90600052602060002090600902016005019190611047929190613db6565b5060019250611071565b8080600101915050610ee1565b5b8180600101925050610c76565b600092505b505098975050505050505050565b6060611089613e36565b60008090505b6001805490508110156115185760028787604051808383808284378201915050925050506020604051808303816000865af11580156110d2573d6000803e3d6000fd5b5050506040513d601f19601f820116820180604052506110f591908101906140cc565b60001916600260018381548110151561110a57fe5b906000526020600020906003020160010160405180828054600181600116156101000203166002900480156111765780601f10611154576101008083540402835291820191611176565b820191906000526020600020905b815481529060010190602001808311611162575b50509150506020604051808303816000865af115801561119a573d6000803e3d6000fd5b5050506040513d601f19601f820116820180604052506111bd91908101906140cc565b600019161480156112f0575060028585604051808383808284378201915050925050506020604051808303816000865af11580156111ff573d6000803e3d6000fd5b5050506040513d601f19601f8201168201806040525061122291908101906140cc565b60001916600260018381548110151561123757fe5b906000526020600020906003020160020160405180828054600181600116156101000203166002900480156112a35780601f106112815761010080835404028352918201916112a3565b820191906000526020600020905b81548152906001019060200180831161128f575b50509150506020604051808303816000865af11580156112c7573d6000803e3d6000fd5b5050506040513d601f19601f820116820180604052506112ea91908101906140cc565b60001916145b1561150b5760018181548110151561130457fe5b906000526020600020906003020160606040519081016040529081600082018054600181600116156101000203166002900480601f0160208091040260200160405190810160405280929190818152602001828054600181600116156101000203166002900480156113b75780601f1061138c576101008083540402835291602001916113b7565b820191906000526020600020905b81548152906001019060200180831161139a57829003601f168201915b50505050508152602001600182018054600181600116156101000203166002900480601f0160208091040260200160405190810160405280929190818152602001828054600181600116156101000203166002900480156114595780601f1061142e57610100808354040283529160200191611459565b820191906000526020600020905b81548152906001019060200180831161143c57829003601f168201915b50505050508152602001600282018054600181600116156101000203166002900480601f0160208091040260200160405190810160405280929190818152602001828054600181600116156101000203166002900480156114fb5780601f106114d0576101008083540402835291602001916114fb565b820191906000526020600020905b8154815290600101906020018083116114de57829003601f168201915b5050505050815250509150611518565b808060010191505061108f565b816000015192505050949350505050565b60008060009054906101000a900473ffffffffffffffffffffffffffffffffffffffff1673ffffffffffffffffffffffffffffffffffffffff163373ffffffffffffffffffffffffffffffffffffffff161415156115bc576040517f08c379a00000000000000000000000000000000000000000000000000000000081526004016115b3906146a7565b60405180910390fd5b600280549050905090565b60608060006115d4613e58565b600860405190808252806020026020018201604052801561160957816020015b60608152602001906001900390816115f45790505b509250600091505b6001805490508210156119ce5760028a8a604051808383808284378201915050925050506020604051808303816000865af1158015611654573d6000803e3d6000fd5b5050506040513d601f19601f8201168201806040525061167791908101906140cc565b60001916600260018481548110151561168c57fe5b906000526020600020906003020160010160405180828054600181600116156101000203166002900480156116f85780601f106116d65761010080835404028352918201916116f8565b820191906000526020600020905b8154815290600101906020018083116116e4575b50509150506020604051808303816000865af115801561171c573d6000803e3d6000fd5b5050506040513d601f19601f8201168201806040525061173f91908101906140cc565b60001916148015611872575060028888604051808383808284378201915050925050506020604051808303816000865af1158015611781573d6000803e3d6000fd5b5050506040513d601f19601f820116820180604052506117a491908101906140cc565b6000191660026001848154811015156117b957fe5b906000526020600020906003020160020160405180828054600181600116156101000203166002900480156118255780601f10611803576101008083540402835291820191611825565b820191906000526020600020905b815481529060010190602001808311611811575b50509150506020604051808303816000865af1158015611849573d6000803e3d6000fd5b5050506040513d601f19601f8201168201806040525061186c91908101906140cc565b60001916145b156119c1576118b286868080601f0160208091040260200160405190810160405280939291908181526020018383808284378201915050505050506136c5565b905080600001518360008151811015156118c857fe5b9060200190602002018190525080602001518360018151811015156118e957fe5b90602001906020020181905250806040015183600281518110151561190a57fe5b90602001906020020181905250806060015183600381518110151561192b57fe5b90602001906020020181905250806080015183600481518110151561194c57fe5b906020019060200201819052508060a0015183600581518110151561196d57fe5b906020019060200201819052508060c0015183600681518110151561198e57fe5b906020019060200201819052508060e001518360078151811015156119af57fe5b906020019060200201819052506119ce565b8180600101925050611611565b8293505050509695505050505050565b60006119e8613e36565b6000809054906101000a900473ffffffffffffffffffffffffffffffffffffffff1673ffffffffffffffffffffffffffffffffffffffff163373ffffffffffffffffffffffffffffffffffffffff16141515611a79576040517f08c379a0000000000000000000000000000000000000000000000000000000008152600401611a70906146a7565b60405180910390fd5b87878080601f01602080910402602001604051908101604052809392919081815260200183838082843782019150505050505086868080601f01602080910402602001604051908101604052809392919081815260200183838082843782019150505050505085858080601f0160208091040260200160405190810160405280939291908181526020018383808284378201915050505050506060806060859250849150839050600015156003866040518082805190602001908083835b602083101515611b5c5780518252602082019150602081019050602083039250611b37565b6001836020036101000a038019825116818451168082178552505050505050905001915050908152602001604051809103902060009054906101000a900460ff161515141515611be1576040517f08c379a0000000000000000000000000000000000000000000000000000000008152600401611bd8906146c7565b60405180910390fd5b60008351111515611c27576040517f08c379a0000000000000000000000000000000000000000000000000000000008152600401611c1e90614667565b60405180910390fd5b60088251111515611c6d576040517f08c379a0000000000000000000000000000000000000000000000000000000008152600401611c6490614687565b60405180910390fd5b60088151111515611cb3576040517f08c379a0000000000000000000000000000000000000000000000000000000008152600401611caa906146e7565b60405180910390fd5b6060604051908101604052808f8f8080601f01602080910402602001604051908101604052809392919081815260200183838082843782019150505050505081526020018d8d8080601f01602080910402602001604051908101604052809392919081815260200183838082843782019150505050505081526020018b8b8080601f0160208091040260200160405190810160405280939291908181526020018383808284378201915050505050508152509650600187908060018154018082558091505090600182039060005260206000209060030201600090919290919091506000820151816000019080519060200190611db1929190613ea5565b506020820151816001019080519060200190611dce929190613ea5565b506040820151816002019080519060200190611deb929190613ea5565b50505050600160038d8d60405180838380828437820191505092505050908152602001604051809103902060006101000a81548160ff02191690831515021790555060019750505050505050509695505050505050565b60008060008091505b6001805490508210156122415760028b8b604051808383808284378201915050925050506020604051808303816000865af1158015611e8e573d6000803e3d6000fd5b5050506040513d601f19601f82011682018060405250611eb191908101906140cc565b600019166002600184815481101515611ec657fe5b90600052602060002090600302016001016040518082805460018160011615610100020316600290048015611f325780601f10611f10576101008083540402835291820191611f32565b820191906000526020600020905b815481529060010190602001808311611f1e575b50509150506020604051808303816000865af1158015611f56573d6000803e3d6000fd5b5050506040513d601f19601f82011682018060405250611f7991908101906140cc565b600019161480156120ac575060028989604051808383808284378201915050925050506020604051808303816000865af1158015611fbb573d6000803e3d6000fd5b5050506040513d601f19601f82011682018060405250611fde91908101906140cc565b600019166002600184815481101515611ff357fe5b9060005260206000209060030201600201604051808280546001816001161561010002031660029004801561205f5780601f1061203d57610100808354040283529182019161205f565b820191906000526020600020905b81548152906001019060200180831161204b575b50509150506020604051808303816000865af1158015612083573d6000803e3d6000fd5b5050506040513d601f19601f820116820180604052506120a691908101906140cc565b60001916145b1561223457600090505b6002805490508110156122335760028787604051808383808284378201915050925050506020604051808303816000865af11580156120f9573d6000803e3d6000fd5b5050506040513d601f19601f8201168201806040525061211c91908101906140cc565b600019166002808381548110151561213057fe5b9060005260206000209060090201600101604051808280546001816001161561010002031660029004801561219c5780601f1061217a57610100808354040283529182019161219c565b820191906000526020600020905b815481529060010190602001808311612188575b50509150506020604051808303816000865af11580156121c0573d6000803e3d6000fd5b5050506040513d601f19601f820116820180604052506121e391908101906140cc565b6000191614156122265784846002838154811015156121fe57fe5b9060005260206000209060090201600601919061221c929190613db6565b5060019250612246565b80806001019150506120b6565b5b8180600101925050611e4b565b600092505b505098975050505050505050565b60008060008091505b6001805490508210156126535760028b8b604051808383808284378201915050925050506020604051808303816000865af11580156122a0573d6000803e3d6000fd5b5050506040513d601f19601f820116820180604052506122c391908101906140cc565b6000191660026001848154811015156122d857fe5b906000526020600020906003020160010160405180828054600181600116156101000203166002900480156123445780601f10612322576101008083540402835291820191612344565b820191906000526020600020905b815481529060010190602001808311612330575b50509150506020604051808303816000865af1158015612368573d6000803e3d6000fd5b5050506040513d601f19601f8201168201806040525061238b91908101906140cc565b600019161480156124be575060028989604051808383808284378201915050925050506020604051808303816000865af11580156123cd573d6000803e3d6000fd5b5050506040513d601f19601f820116820180604052506123f091908101906140cc565b60001916600260018481548110151561240557fe5b906000526020600020906003020160020160405180828054600181600116156101000203166002900480156124715780601f1061244f576101008083540402835291820191612471565b820191906000526020600020905b81548152906001019060200180831161245d575b50509150506020604051808303816000865af1158015612495573d6000803e3d6000fd5b5050506040513d601f19601f820116820180604052506124b891908101906140cc565b60001916145b1561264657600090505b6002805490508110156126455760028787604051808383808284378201915050925050506020604051808303816000865af115801561250b573d6000803e3d6000fd5b5050506040513d601f19601f8201168201806040525061252e91908101906140cc565b600019166002808381548110151561254257fe5b906000526020600020906009020160010160405180828054600181600116156101000203166002900480156125ae5780601f1061258c5761010080835404028352918201916125ae565b820191906000526020600020905b81548152906001019060200180831161259a575b50509150506020604051808303816000865af11580156125d2573d6000803e3d6000fd5b5050506040513d601f19601f820116820180604052506125f591908101906140cc565b60001916141561263857848460028381548110151561261057fe5b9060005260206000209060090201600201919061262e929190613db6565b5060019250612658565b80806001019150506124c8565b5b818060010192505061225d565b600092505b505098975050505050505050565b6000612670613e58565b82600181518110151561267f57fe5b90602001906020020151600015156004826040518082805190602001908083835b6020831015156126c557805182526020820191506020810190506020830392506126a0565b6001836020036101000a038019825116818451168082178552505050505050905001915050908152602001604051809103902060009054906101000a900460ff16151514151561274a576040517f08c379a000000000000000000000000000000000000000000000000000000000815260040161274190614707565b60405180910390fd5b600092505b600180549050831015612db2576002866040518082805190602001908083835b602083101515612794578051825260208201915060208101905060208303925061276f565b6001836020036101000a0380198251168184511680821785525050505050509050019150506020604051808303816000865af11580156127d8573d6000803e3d6000fd5b5050506040513d601f19601f820116820180604052506127fb91908101906140cc565b60001916600260018581548110151561281057fe5b9060005260206000209060030201600101604051808280546001816001161561010002031660029004801561287c5780601f1061285a57610100808354040283529182019161287c565b820191906000526020600020905b815481529060010190602001808311612868575b50509150506020604051808303816000865af11580156128a0573d6000803e3d6000fd5b5050506040513d601f19601f820116820180604052506128c391908101906140cc565b60001916148015612a3c57506002856040518082805190602001908083835b60208310151561290757805182526020820191506020810190506020830392506128e2565b6001836020036101000a0380198251168184511680821785525050505050509050019150506020604051808303816000865af115801561294b573d6000803e3d6000fd5b5050506040513d601f19601f8201168201806040525061296e91908101906140cc565b60001916600260018581548110151561298357fe5b906000526020600020906003020160020160405180828054600181600116156101000203166002900480156129ef5780601f106129cd5761010080835404028352918201916129ef565b820191906000526020600020905b8154815290600101906020018083116129db575b50509150506020604051808303816000865af1158015612a13573d6000803e3d6000fd5b5050506040513d601f19601f82011682018060405250612a3691908101906140cc565b60001916145b15612da55761012060405190810160405280856000815181101515612a5d57fe5b906020019060200201518152602001856001815181101515612a7b57fe5b906020019060200201518152602001856002815181101515612a9957fe5b906020019060200201518152602001856003815181101515612ab757fe5b906020019060200201518152602001856004815181101515612ad557fe5b906020019060200201518152602001856005815181101515612af357fe5b906020019060200201518152602001856006815181101515612b1157fe5b906020019060200201518152602001600185815481101515612b2f57fe5b90600052602060002090600302016000018054600181600116156101000203166002900480601f016020809104026020016040519081016040528092919081815260200182805460018160011615610100020316600290048015612bd45780601f10612ba957610100808354040283529160200191612bd4565b820191906000526020600020905b815481529060010190602001808311612bb757829003601f168201915b50505050508152602001428152509150600282908060018154018082558091505090600182039060005260206000209060090201600090919290919091506000820151816000019080519060200190612c2e929190613ea5565b506020820151816001019080519060200190612c4b929190613ea5565b506040820151816002019080519060200190612c68929190613ea5565b506060820151816003019080519060200190612c85929190613ea5565b506080820151816004019080519060200190612ca2929190613ea5565b5060a0820151816005019080519060200190612cbf929190613ea5565b5060c0820151816006019080519060200190612cdc929190613ea5565b5060e0820151816007019080519060200190612cf9929190613ea5565b50610100820151816008015550505060016004856001815181101515612d1b57fe5b906020019060200201516040518082805190602001908083835b602083101515612d5a5780518252602082019150602081019050602083039250612d35565b6001836020036101000a038019825116818451168082178552505050505050905001915050908152602001604051809103902060006101000a81548160ff0219169083151502179055505b828060010193505061274f565b505050505050565b60008060008091505b6001805490508210156131b95760028b8b604051808383808284378201915050925050506020604051808303816000865af1158015612e06573d6000803e3d6000fd5b5050506040513d601f19601f82011682018060405250612e2991908101906140cc565b600019166002600184815481101515612e3e57fe5b90600052602060002090600302016001016040518082805460018160011615610100020316600290048015612eaa5780601f10612e88576101008083540402835291820191612eaa565b820191906000526020600020905b815481529060010190602001808311612e96575b50509150506020604051808303816000865af1158015612ece573d6000803e3d6000fd5b5050506040513d601f19601f82011682018060405250612ef191908101906140cc565b60001916148015613024575060028989604051808383808284378201915050925050506020604051808303816000865af1158015612f33573d6000803e3d6000fd5b5050506040513d601f19601f82011682018060405250612f5691908101906140cc565b600019166002600184815481101515612f6b57fe5b90600052602060002090600302016002016040518082805460018160011615610100020316600290048015612fd75780601f10612fb5576101008083540402835291820191612fd7565b820191906000526020600020905b815481529060010190602001808311612fc3575b50509150506020604051808303816000865af1158015612ffb573d6000803e3d6000fd5b5050506040513d601f19601f8201168201806040525061301e91908101906140cc565b60001916145b156131ac57600090505b6002805490508110156131ab5760028787604051808383808284378201915050925050506020604051808303816000865af1158015613071573d6000803e3d6000fd5b5050506040513d601f19601f8201168201806040525061309491908101906140cc565b60001916600280838154811015156130a857fe5b906000526020600020906009020160010160405180828054600181600116156101000203166002900480156131145780601f106130f2576101008083540402835291820191613114565b820191906000526020600020905b815481529060010190602001808311613100575b50509150506020604051808303816000865af1158015613138573d6000803e3d6000fd5b5050506040513d601f19601f8201168201806040525061315b91908101906140cc565b60001916141561319e57848460028381548110151561317657fe5b90600052602060002090600902016003019190613194929190613db6565b50600192506131be565b808060010191505061302e565b5b8180600101925050612dc3565b600092505b505098975050505050505050565b60008060008091505b6001805490508210156136b25760028b8b604051808383808284378201915050925050506020604051808303816000865af1158015613218573d6000803e3d6000fd5b5050506040513d601f19601f8201168201806040525061323b91908101906140cc565b60001916600260018481548110151561325057fe5b906000526020600020906003020160010160405180828054600181600116156101000203166002900480156132bc5780601f1061329a5761010080835404028352918201916132bc565b820191906000526020600020905b8154815290600101906020018083116132a8575b50509150506020604051808303816000865af11580156132e0573d6000803e3d6000fd5b5050506040513d601f19601f8201168201806040525061330391908101906140cc565b60001916148015613436575060028989604051808383808284378201915050925050506020604051808303816000865af1158015613345573d6000803e3d6000fd5b5050506040513d601f19601f8201168201806040525061336891908101906140cc565b60001916600260018481548110151561337d57fe5b906000526020600020906003020160020160405180828054600181600116156101000203166002900480156133e95780601f106133c75761010080835404028352918201916133e9565b820191906000526020600020905b8154815290600101906020018083116133d5575b50509150506020604051808303816000865af115801561340d573d6000803e3d6000fd5b5050506040513d601f19601f8201168201806040525061343091908101906140cc565b60001916145b156136a557600090505b6002805490508110156136a45760028787604051808383808284378201915050925050506020604051808303816000865af1158015613483573d6000803e3d6000fd5b5050506040513d601f19601f820116820180604052506134a691908101906140cc565b60001916600280838154811015156134ba57fe5b906000526020600020906009020160010160405180828054600181600116156101000203166002900480156135265780601f10613504576101008083540402835291820191613526565b820191906000526020600020905b815481529060010190602001808311613512575b50509150506020604051808303816000865af115801561354a573d6000803e3d6000fd5b5050506040513d601f19601f8201168201806040525061356d91908101906140cc565b600019161415613697576000600460028381548110151561358a57fe5b906000526020600020906009020160010160405180828054600181600116156101000203166002900480156135f65780601f106135d45761010080835404028352918201916135f6565b820191906000526020600020905b8154815290600101906020018083116135e2575b5050915050908152602001604051809103902060006101000a81548160ff02191690831515021790555060016004868660405180838380828437820191505092505050908152602001604051809103902060006101000a81548160ff021916908315150217905550848460028381548110151561366f57fe5b9060005260206000209060090201600101919061368d929190613db6565b50600192506136b7565b8080600101915050613440565b5b81806001019250506131d5565b600092505b505098975050505050505050565b6136cd613e58565b6136d5613e58565b60008090505b600280549050811015613dac576002846040518082805190602001908083835b60208310151561372057805182526020820191506020810190506020830392506136fb565b6001836020036101000a0380198251168184511680821785525050505050509050019150506020604051808303816000865af1158015613764573d6000803e3d6000fd5b5050506040513d601f19601f8201168201806040525061378791908101906140cc565b600019166002808381548110151561379b57fe5b906000526020600020906009020160010160405180828054600181600116156101000203166002900480156138075780601f106137e5576101008083540402835291820191613807565b820191906000526020600020905b8154815290600101906020018083116137f3575b50509150506020604051808303816000865af115801561382b573d6000803e3d6000fd5b5050506040513d601f19601f8201168201806040525061384e91908101906140cc565b600019161415613d9f5760028181548110151561386757fe5b90600052602060002090600902016101206040519081016040529081600082018054600181600116156101000203166002900480601f01602080910402602001604051908101604052809291908181526020018280546001816001161561010002031660029004801561391b5780601f106138f05761010080835404028352916020019161391b565b820191906000526020600020905b8154815290600101906020018083116138fe57829003601f168201915b50505050508152602001600182018054600181600116156101000203166002900480601f0160208091040260200160405190810160405280929190818152602001828054600181600116156101000203166002900480156139bd5780601f10613992576101008083540402835291602001916139bd565b820191906000526020600020905b8154815290600101906020018083116139a057829003601f168201915b50505050508152602001600282018054600181600116156101000203166002900480601f016020809104026020016040519081016040528092919081815260200182805460018160011615610100020316600290048015613a5f5780601f10613a3457610100808354040283529160200191613a5f565b820191906000526020600020905b815481529060010190602001808311613a4257829003601f168201915b50505050508152602001600382018054600181600116156101000203166002900480601f016020809104026020016040519081016040528092919081815260200182805460018160011615610100020316600290048015613b015780601f10613ad657610100808354040283529160200191613b01565b820191906000526020600020905b815481529060010190602001808311613ae457829003601f168201915b50505050508152602001600482018054600181600116156101000203166002900480601f016020809104026020016040519081016040528092919081815260200182805460018160011615610100020316600290048015613ba35780601f10613b7857610100808354040283529160200191613ba3565b820191906000526020600020905b815481529060010190602001808311613b8657829003601f168201915b50505050508152602001600582018054600181600116156101000203166002900480601f016020809104026020016040519081016040528092919081815260200182805460018160011615610100020316600290048015613c455780601f10613c1a57610100808354040283529160200191613c45565b820191906000526020600020905b815481529060010190602001808311613c2857829003601f168201915b50505050508152602001600682018054600181600116156101000203166002900480601f016020809104026020016040519081016040528092919081815260200182805460018160011615610100020316600290048015613ce75780601f10613cbc57610100808354040283529160200191613ce7565b820191906000526020600020905b815481529060010190602001808311613cca57829003601f168201915b50505050508152602001600782018054600181600116156101000203166002900480601f016020809104026020016040519081016040528092919081815260200182805460018160011615610100020316600290048015613d895780601f10613d5e57610100808354040283529160200191613d89565b820191906000526020600020905b815481529060010190602001808311613d6c57829003601f168201915b5050505050815260200160088201548152505091505b80806001019150506136db565b8192505050919050565b828054600181600116156101000203166002900490600052602060002090601f016020900481019282601f10613df757803560ff1916838001178555613e25565b82800160010185558215613e25579182015b82811115613e24578235825591602001919060010190613e09565b5b509050613e329190613f25565b5090565b6060604051908101604052806060815260200160608152602001606081525090565b610120604051908101604052806060815260200160608152602001606081526020016060815260200160608152602001606081526020016060815260200160608152602001600081525090565b828054600181600116156101000203166002900490600052602060002090601f016020900481019282601f10613ee657805160ff1916838001178555613f14565b82800160010185558215613f14579182015b82811115613f13578251825591602001919060010190613ef8565b5b509050613f219190613f25565b5090565b613f4791905b80821115613f43576000816000905550600101613f2b565b5090565b90565b600082601f8301121515613f5d57600080fd5b8135613f70613f6b8261476f565b614742565b9150818183526020840193506020810190508360005b83811015613fb65781358601613f9c8882614020565b845260208401935060208301925050600181019050613f86565b5050505092915050565b6000613fcc8251614840565b905092915050565b60008083601f8401121515613fe857600080fd5b8235905067ffffffffffffffff81111561400157600080fd5b60208301915083600182028301111561401957600080fd5b9250929050565b600082601f830112151561403357600080fd5b813561404661404182614797565b614742565b9150808252602083016020830185838301111561406257600080fd5b61406d83828461484a565b50505092915050565b600082601f830112151561408957600080fd5b813561409c614097826147c3565b614742565b915080825260208301602083018583830111156140b857600080fd5b6140c383828461484a565b50505092915050565b6000602082840312156140de57600080fd5b60006140ec84828501613fc0565b91505092915050565b6000806000806040858703121561410b57600080fd5b600085013567ffffffffffffffff81111561412557600080fd5b61413187828801613fd4565b9450945050602085013567ffffffffffffffff81111561415057600080fd5b61415c87828801613fd4565b925092505092959194509250565b6000806000806000806060878903121561418357600080fd5b600087013567ffffffffffffffff81111561419d57600080fd5b6141a989828a01613fd4565b9650965050602087013567ffffffffffffffff8111156141c857600080fd5b6141d489828a01613fd4565b9450945050604087013567ffffffffffffffff8111156141f357600080fd5b6141ff89828a01613fd4565b92509250509295509295509295565b6000806000806000806000806080898b03121561422a57600080fd5b600089013567ffffffffffffffff81111561424457600080fd5b6142508b828c01613fd4565b9850985050602089013567ffffffffffffffff81111561426f57600080fd5b61427b8b828c01613fd4565b9650965050604089013567ffffffffffffffff81111561429a57600080fd5b6142a68b828c01613fd4565b9450945050606089013567ffffffffffffffff8111156142c557600080fd5b6142d18b828c01613fd4565b92509250509295985092959890939650565b6000806000606084860312156142f857600080fd5b600084013567ffffffffffffffff81111561431257600080fd5b61431e86828701614076565b935050602084013567ffffffffffffffff81111561433b57600080fd5b61434786828701614076565b925050604084013567ffffffffffffffff81111561436457600080fd5b61437086828701613f4a565b9150509250925092565b6000614385826147fc565b8084526020840193508360208202850161439e856147ef565b60005b848110156143d75783830388526143b983835161442d565b92506143c48261481d565b91506020880197506001810190506143a1565b508196508694505050505092915050565b6143f18161482a565b82525050565b600061440282614812565b808452614416816020860160208601614859565b61441f8161488c565b602085010191505092915050565b600061443882614807565b80845261444c816020860160208601614859565b6144558161488c565b602085010191505092915050565b6000602082527f506c656173652070726f7669646520612076616c69642062616e6b206e616d656020830152604082019050919050565b6000602682527f5549442073686f756c642062652067726561746572207468616e20382063686160208301527f72616374657200000000000000000000000000000000000000000000000000006040830152606082019050919050565b6000601d82527f4f776e65722061757468656e7469636174696f6e2072657175697265640000006020830152604082019050919050565b6000601282527f5549442065786973747320616c726561647900000000000000000000000000006020830152604082019050919050565b6000602b82527f50617373636f64652073686f756c642062652067726561746572207468616e2060208301527f38206368617261637465720000000000000000000000000000000000000000006040830152606082019050919050565b6000601682527f4163636f756e742065786973747320616c7265616479000000000000000000006020830152604082019050919050565b61460281614836565b82525050565b60006020820190508181036000830152614622818461437a565b905092915050565b600060208201905061463f60008301846143e8565b92915050565b6000602082019050818103600083015261465f81846143f7565b905092915050565b6000602082019050818103600083015261468081614463565b9050919050565b600060208201905081810360008301526146a08161449a565b9050919050565b600060208201905081810360008301526146c0816144f7565b9050919050565b600060208201905081810360008301526146e08161452e565b9050919050565b6000602082019050818103600083015261470081614565565b9050919050565b60006020820190508181036000830152614720816145c2565b9050919050565b600060208201905061473c60008301846145f9565b92915050565b6000604051905081810181811067ffffffffffffffff8211171561476557600080fd5b8060405250919050565b600067ffffffffffffffff82111561478657600080fd5b602082029050602081019050919050565b600067ffffffffffffffff8211156147ae57600080fd5b601f19601f8301169050602081019050919050565b600067ffffffffffffffff8211156147da57600080fd5b601f19601f8301169050602081019050919050565b6000602082019050919050565b600081519050919050565b600081519050919050565b600081519050919050565b6000602082019050919050565b60008115159050919050565b6000819050919050565b6000819050919050565b82818337600083830152505050565b60005b8381101561487757808201518184015260208101905061485c565b83811115614886576000848401525b50505050565b6000601f19601f83011690509190505600a265627a7a7230582087ced35a6d899f2dfc1051c7c2d60faa352d72738c578d4738d622cecc9d7f236c6578706572696d656e74616cf50037",
  "source": "pragma experimental ABIEncoderV2;\r\npragma solidity ^0.4.23;\r\n\r\n\r\ncontract KYC {\r\n    \r\n    address private owner;\r\n    \r\n    struct Bank {\r\n        string name;\r\n        string uid;\r\n        string passcode;\r\n    }\r\n    \r\n    struct Account {\r\n        string name;\r\n        string nid;\r\n        string dob;\r\n        string mobileNumber;\r\n        string currentAddress;\r\n        string fatherName;\r\n        string gender;\r\n        string seederBank;\r\n        uint regUnixTime;\r\n    }\r\n    \r\n    Bank[] private banks;\r\n    \r\n    Account[] private accounts;\r\n    \r\n    mapping(string => bool) uniqueUid;\r\n    \r\n    mapping(string => bool) uniqueNid;\r\n    \r\n    \r\n    constructor() public {\r\n        owner = msg.sender;\r\n    }\r\n    \r\n    modifier onlyOwner {\r\n        require(msg.sender == owner, \"Owner authentication required\");\r\n        _;\r\n    }\r\n    \r\n    modifier uniqueAccount(string nid) {\r\n        require(uniqueNid[nid] == false, \"Account exists already\");\r\n        _;\r\n    }\r\n    \r\n    modifier validBankInput(string name, string uid, string pass) {\r\n        bytes memory n = bytes(name);\r\n        bytes memory u = bytes(uid);\r\n        bytes memory p = bytes(pass);\r\n        require(uniqueUid[uid] == false, \"UID exists already\");\r\n        require(n.length > 0, \"Please provide a valid bank name\");\r\n        require(u.length > 8, \"UID should be greater than 8 character\");\r\n        require(p.length > 8, \"Passcode should be greater than 8 character\");\r\n        _;\r\n    }\r\n    \r\n    function registerNewBank(string _name, string _uid, string _passcode) external \r\n    onlyOwner validBankInput(_name, _uid, _passcode) returns(bool) {\r\n        Bank memory newBank = Bank(_name, _uid, _passcode);\r\n        banks.push(newBank);\r\n        uniqueUid[_uid] = true;\r\n        return true;\r\n    }\r\n    \r\n    function getBankCount() public view onlyOwner returns(uint){\r\n        return banks.length;\r\n    }\r\n    \r\n    function getAccountCount() public view onlyOwner returns(uint) {\r\n        return accounts.length;\r\n    }\r\n    \r\n    function getBankInfo(string _uid, string _passcode) external view returns(string) {\r\n        Bank memory currentBank;\r\n        for(uint i = 0; i < banks.length; i++){\r\n            if(sha256(bytes(banks[i].uid)) == sha256(bytes(_uid)) && sha256(bytes(banks[i].passcode)) == sha256(bytes(_passcode))){\r\n                currentBank = banks[i];\r\n                break;\r\n            }\r\n        }\r\n        return currentBank.name;\r\n    }\r\n    \r\n    \r\n    \r\n    function createAccount(string _bankUid, string _bankPass, string[] _customerInfo)\r\n    public uniqueAccount(_customerInfo[1]){\r\n        for(uint i = 0; i < banks.length; i++){\r\n            if(sha256(bytes(banks[i].uid)) == sha256(bytes(_bankUid)) && sha256(bytes(banks[i].passcode)) == sha256(bytes(_bankPass))){\r\n                Account memory newAccount = Account(_customerInfo[0],_customerInfo[1],_customerInfo[2],_customerInfo[3],_customerInfo[4],_customerInfo[5],_customerInfo[6],banks[i].name, uint(now));\r\n                accounts.push(newAccount);\r\n                uniqueNid[_customerInfo[1]] = true;\r\n            }\r\n        }\r\n    }\r\n    \r\n    function accessAccount(string _bankUid, string _bankPass, string _customerNid) \r\n    external view returns(string[]) {\r\n        string[] memory accountInfo = new string[](8);\r\n        for(uint i = 0; i < banks.length; i++){\r\n            if(sha256(bytes(banks[i].uid)) == sha256(bytes(_bankUid)) && sha256(bytes(banks[i].passcode)) == sha256(bytes(_bankPass))) {\r\n                Account memory acc = getAcoount(_customerNid);\r\n                accountInfo[0] = acc.name;\r\n                accountInfo[1] = acc.nid;\r\n                accountInfo[2] = acc.dob;\r\n                accountInfo[3] = acc.mobileNumber;\r\n                accountInfo[4] = acc.currentAddress;\r\n                accountInfo[5] = acc.fatherName;\r\n                accountInfo[6] = acc.gender;\r\n                accountInfo[7] = acc.seederBank;\r\n                //accountInfo[8] = string(acc.regUnixTime);\r\n                break;\r\n            }\r\n        }\r\n        return accountInfo;\r\n    }\r\n    \r\n    function getAcoount(string _nid) private view returns(Account) {\r\n        Account memory acc;\r\n        for(uint i = 0; i < accounts.length; i++){\r\n            if(sha256(bytes(accounts[i].nid)) == sha256(bytes(_nid)))\r\n                acc = accounts[i];\r\n        }\r\n        return acc;\r\n    }\r\n    \r\n    function updateAccountName(string _bankUid, string _bankPass, string _customerNid, string newName) \r\n    external returns(bool) {\r\n        for(uint i = 0; i < banks.length; i++){\r\n            if(sha256(bytes(banks[i].uid)) == sha256(bytes(_bankUid)) && sha256(bytes(banks[i].passcode)) == sha256(bytes(_bankPass))) {\r\n                for(uint j = 0; j < accounts.length; j++){\r\n                    if(sha256(bytes(accounts[j].nid)) == sha256(bytes(_customerNid))) {\r\n                        accounts[j].name = newName;\r\n                        return true;\r\n                    }\r\n                        \r\n                }\r\n            }\r\n        }\r\n        return false;\r\n    }\r\n    \r\n    function updateAccountNid(string _bankUid, string _bankPass, string _customerNid, string newNid) \r\n    external returns(bool) {\r\n        for(uint i = 0; i < banks.length; i++){\r\n            if(sha256(bytes(banks[i].uid)) == sha256(bytes(_bankUid)) && sha256(bytes(banks[i].passcode)) == sha256(bytes(_bankPass))) {\r\n                for(uint j = 0; j < accounts.length; j++){\r\n                    if(sha256(bytes(accounts[j].nid)) == sha256(bytes(_customerNid))) {\r\n                        uniqueNid[accounts[j].nid] = false;\r\n                        uniqueNid[newNid] = true;\r\n                        accounts[j].nid = newNid;\r\n                        return true;\r\n                    }\r\n                        \r\n                }\r\n            }\r\n        }\r\n        return false;\r\n    }\r\n    \r\n    function updateAccountDOB(string _bankUid, string _bankPass, string _customerNid, string newDOB) \r\n    external returns(bool) {\r\n        for(uint i = 0; i < banks.length; i++){\r\n            if(sha256(bytes(banks[i].uid)) == sha256(bytes(_bankUid)) && sha256(bytes(banks[i].passcode)) == sha256(bytes(_bankPass))) {\r\n                for(uint j = 0; j < accounts.length; j++){\r\n                    if(sha256(bytes(accounts[j].nid)) == sha256(bytes(_customerNid))) {\r\n                        accounts[j].dob = newDOB;\r\n                        return true;\r\n                    }\r\n                        \r\n                }\r\n            }\r\n        }\r\n        return false;\r\n    }\r\n    \r\n    \r\n    function updateAccountMobile(string _bankUid, string _bankPass, string _customerNid, string newMobile) \r\n    external returns(bool) {\r\n        for(uint i = 0; i < banks.length; i++){\r\n            if(sha256(bytes(banks[i].uid)) == sha256(bytes(_bankUid)) && sha256(bytes(banks[i].passcode)) == sha256(bytes(_bankPass))) {\r\n                for(uint j = 0; j < accounts.length; j++){\r\n                    if(sha256(bytes(accounts[j].nid)) == sha256(bytes(_customerNid))) {\r\n                        accounts[j].mobileNumber = newMobile;\r\n                        return true;\r\n                    }\r\n                        \r\n                }\r\n            }\r\n        }\r\n        return false;\r\n    }\r\n    \r\n    function updateAccountAddress(string _bankUid, string _bankPass, string _customerNid, string newAddress) \r\n    external returns(bool) {\r\n        for(uint i = 0; i < banks.length; i++){\r\n            if(sha256(bytes(banks[i].uid)) == sha256(bytes(_bankUid)) && sha256(bytes(banks[i].passcode)) == sha256(bytes(_bankPass))) {\r\n                for(uint j = 0; j < accounts.length; j++){\r\n                    if(sha256(bytes(accounts[j].nid)) == sha256(bytes(_customerNid))) {\r\n                        accounts[j].currentAddress = newAddress;\r\n                        return true;\r\n                    }\r\n                        \r\n                }\r\n            }\r\n        }\r\n        return false;\r\n    }\r\n    \r\n    \r\n    function updateAccountFatherName(string _bankUid, string _bankPass, string _customerNid, string newFatherName) \r\n    external returns(bool) {\r\n        for(uint i = 0; i < banks.length; i++){\r\n            if(sha256(bytes(banks[i].uid)) == sha256(bytes(_bankUid)) && sha256(bytes(banks[i].passcode)) == sha256(bytes(_bankPass))) {\r\n                for(uint j = 0; j < accounts.length; j++){\r\n                    if(sha256(bytes(accounts[j].nid)) == sha256(bytes(_customerNid))) {\r\n                        accounts[j].fatherName = newFatherName;\r\n                        return true;\r\n                    }\r\n                        \r\n                }\r\n            }\r\n        }\r\n        return false;\r\n    }\r\n    \r\n    \r\n    \r\n    function updateAccountGender(string _bankUid, string _bankPass, string _customerNid, string gender) \r\n    external returns(bool) {\r\n        for(uint i = 0; i < banks.length; i++){\r\n            if(sha256(bytes(banks[i].uid)) == sha256(bytes(_bankUid)) && sha256(bytes(banks[i].passcode)) == sha256(bytes(_bankPass))) {\r\n                for(uint j = 0; j < accounts.length; j++){\r\n                    if(sha256(bytes(accounts[j].nid)) == sha256(bytes(_customerNid))) {\r\n                        accounts[j].gender = gender;\r\n                        return true;\r\n                    }\r\n                        \r\n                }\r\n            }\r\n        }\r\n        return false;\r\n    }\r\n    \r\n    \r\n}",
  "sourcePath": "E:\\Ethereum Artifacts\\E-KYC\\smart-contract-v2\\contracts\\KYC.sol",
  "compiler": {
    "name": "solc",
    "version": "0.4.24+commit.e67f0147.Emscripten.clang"
  },
  "schemaVersion": "2.0.1",
  "updatedAt": "2018-10-29T05:28:39.325Z"
}